:10000000BAEF1BF068961200046ED8CF05F0E0CF6F
:1000100006F00001E9CF0CF0EACF07F0E1CF08F0DD
:10002000E2CF09F0D9CF0AF0DACF0BF0F3CF12F01C
:10003000F4CF13F0FACF14F0F5CF15F0F6CF16F099
:10004000F7CF17F000C00EF001C00FF002C010F0A3
:1000500003C011F0A0AA30EF00F0A1BA72EF07F0D0
:100060000EC000F00FC001F010C002F011C003F08C
:100070000CC0E9FF07C0EAFF078E08C0E1FF09C016
:10008000E2FF0AC0D9FF0BC0DAFF12C0F3FF13C0B2
:10009000F4FF14C0FAFF15C0F5FF16C0F6FF17C035
:1000A000F7FF045006C0E0FF05C0D8FF1000F76A54
:1000B000BE0FF66E000EF7220900F5501200000385
:1000C000FFFFFFFFFFFFFFFFFFFFFFFFFFFFF76ADD
:1000D000DE0FF66E000EF7220900F5501200400008
:1000E00040000000000000000000000000000000D0
:1000F0000000000000000000000000000000F76A9F
:100100000E0FF66E010EF7220900F55012000600E0
:10011000FF0901A101190129081580257F7508959E
:1001200040810219012908750895409140C0F76A7D
:100130003E0FF66E010EF7220900F5501200000086
:10014000F76A500FF66E010EF7220900F550120003
:100150002000F76A620FF66E010EF7220900F550D3
:10016000120009022900010100C032090400000246
:100170000300000009210001000122200007058181
:100180000340000A0705010340000A00F76A9C0FBC
:10019000F66E010EF7220900F55012000100F76A11
:1001A000AE0FF66E010EF7220900F5501200120094
:1001B000F76AC00FF66E010EF7220900F550120023
:1001C000120110010000004061040400000101025E
:1001D0000001F76AE20FF66E010EF7220900F550F2
:1001E000120004030004080342004D0045001403FC
:1001F00042004D0045002D0034003300390030002E
:100200002000F76A120FF66E020EF7220900F55071
:100210001200280C01066D92699468A402D06894BB
:10022000FCD768987EEF07F0400E0401016F040EC2
:100230000101E26F100EE2C103F4E8CF02F4880E70
:100240000401006F046B040E076F500E066F00016F
:10025000120070A002D0E8DF7090689A85EF07F076
:100260006A6A68928AEF07F00101EE91EDBFEE81B4
:10027000ED9FED51100803E2000E016E1AD0EEA1C1
:100280000DD0036AED51000112DFFF0802E1000EFC
:1002900001D0010E016E01010CD00BD0036AED51AB
:1002A000000105DFFF0802E1000E01D0010E016E22
:1002B0000101000112000101ED51EF03F3CF01F044
:1002C000F4CF00F0F003F3500026EE51EF03F350AB
:1002D0000020026E00011200036A0101EC51700F50
:1002E000E96E0F0E0320EA6EEF6AECC1EDF100013A
:1002F000BBDF015228E00101EE6BECC1EDF1F06BC8
:10030000080EEF6F0001D7DF010101C0E9FF040E05
:100310000224EA6EEF6AEE6BECC1EDF1F06B080EB1
:10032000EF6F0001C8DF02C0EEF101C0EDF1040E75
:100330000101ED27000EEE23EDC1E9FF040EEE25CD
:10034000EA6EEF6A00011200010E0101EB6FEB5142
:100350000F0807E3EBC1ECF10001BEDF0101EB2B5D
:10036000F6D7000112002E6A2D6A0101E16BE153FC
:100370000AE1036AE1512F0FE96E000E0320EA6ED5
:10038000EF6AE12BF4D7216A010E226E206A000188
:1003900012006B6A696A6A6A686A6E6A706AD4DF98
:1003A000E2DF160E706E68A602D02CDEFCD79F0E20
:1003B0006B6E3D0E696E6D9837DF030E286E8FEF02
:1003C00007F0698469986D8294EF07F0689C99EF53
:1003D00007F0E7C129F01200296812000101E56B5E
:1003E0002D502E103DE0E5513F083AE32350FC0F1D
:1003F00025E2040F00013CEF02F02CC003F02B506B
:10040000A8DEE8CFE6F1010119D02CC003F02B5093
:1004100076DEE8CFE6F1010111D02CC003F02B50BD
:10042000D8DEE8CFE6F1010109D02CC003F02B5053
:10043000BFDEE8CFE6F1010101D001012B2AD8B4DB
:100440002C2A2D50D8B42E062D06E551E52B500F41
:10045000E96E040EEA6ED8B0EA2AE6C1EFFFC0D713
:100460002D502E1004E1E551400801E0206AE5C15D
:10047000E7F10001AEDF1200E824F76AF736930FC8
:10048000F66E040EF7220A00F550FA6E0800F550D9
:10049000F96EFA030A041A042A040101E46B2C6AB7
:1004A0002B6A236A04011351010A000109E0030ABF
:1004B0000DE0010A0FE0220A29E0030A41E062D0C0
:1004C0002E6A120E2D6E030E236E5ED02E6A290E3A
:1004D0002D6E5AD0020E236E0101E46B04011251FD
:1004E0000101E45D0BE22CC003F02B50000171DE32
:1004F0002B26000E2C220101E42BF0D72CC003F098
:100500002B50000166DE2D6E2E6A3ED0D89004017D
:100510001235036A000143DE0900F5CF03F02B6EAC
:1005200003C02CF02B3C02D02C5208E02CC003F06E
:100530002B500FDE2D6E2E6A27D002D04DDF33D028
:10054000D89004011435036A0001F1DD0900F5CFEC
:1005500003F02B6E03C02CF02B3C02D02C5210E089
:10056000010E236ED89004011435036A0001E8DD02
:100570000900F5CF03F02D6E03C02EF005D002D098
:100580002BDF11D029DF0FD00401175308E12E52C1
:1005900003E12D50165D03E22E6A16C42DF0010E04
:1005A000206E00011BDF12000101E35306E1040E7F
:1005B000286E0001C9DEEAD00101050E286E040E86
:1005C000E66F900EE56F010EE46FE4510F08D8A0BE
:1005D000DDD0E4C1ECF100017FDE0101E76B036ACD
:1005E000E451000164DDFF0867E0040E0101E76FDC
:1005F000D890E435036A00016ADD0900F5CF03F005
:100600000101E86F03C0E9F1EE6BE4C1EDF1F06BBD
:10061000080EEF6F00014FDE01C0EBF1010E01018A
:100620000124016E000E0220036E01C0E9FF040EDA
:100630000324EA6EE8C1EFFFEE6BE4C1EDF1F06B6D
:10064000080EEF6F000137DE01C0EBF1020E010171
:100650000124016E000E0220036E01C0E9FF040EAA
:100660000324EA6EE6C1ECFFED52E5C1EFFFD8903E
:10067000E435036A00012BDD0900F5CF03F0010129
:10068000E5270350E623880EEA6FE9A101D0EA814D
:10069000E9A301D0EA83EE6BE4C1EDF1F06B080E43
:1006A000EF6F000108DE010101C0E9FF040E022422
:1006B000EA6EEAC1EFFF0001036A0101E4510001A3
:1006C000F6DCFF0848E00101E783EE6BE4C1EDF1E1
:1006D000F06B080EEF6F0001EEDD02C0ECF101C01F
:1006E000EBF1040E0101EB27000EEC23020EEB25CB
:1006F000016E000EEC21036E01C0E9FF040E03241D
:10070000EA6EE6C1ECFFED52E5C1EFFFD890E435AB
:10071000036A0001DCDC0900F5CF03F00101E527E5
:100720000350E623EE6BE4C1EDF1F06B080EEF6FC2
:100730000001C1DD02C0ECF101C0EBF1040E0101CA
:10074000EB27000EEC23EBC1E9FF040EEC25EA6E6B
:10075000400EEF6E00010101E751060802E10E0EA6
:10076000E76F036AE4510001A2DC010803E0010124
:10077000E7890001036A0101E451700FE96E0F0E71
:100780000320EA6EE7C1EFFFE42B1FD700011DEF46
:1007900004F004011151000A00010DE0010A15E006
:1007A000020A21E0060A2CE0030A33E00E0A33E0D5
:1007B000010A39E049D022C050F40401516B020E05
:1007C0000101E76F000105DE40D00401122D08D0C1
:1007D000010E22160101E76B0001FBDD03D00401CD
:1007E0000001FADD32D00401122D07D0228201016E
:1007F000E76B0001EEDD03D004010001EDDD25D043
:10080000020E206E12C42AF00101E76B0001E1DD47
:100810001CD043DE1AD021C050F4010E0101E76F55
:100820000001D7DD12D00401125101080BE312C4FC
:1008300021F012C4E3F10001B7D60101E76B00011A
:10084000C8DD0401000101D0C7DD78EF05F021C04B
:10085000E3F104011151000A000107E00A0A0EE069
:10086000010A2EE00D0A42E043D00401506B516BA7
:10087000020E0101E76F0001ACDD3BD00101E35343
:100880001CE0010EE35D036A000180DC016E0401DF
:10089000145DD8A002D0010110D0036A14512F0FAB
:1008A000E96E000E0320EA6EEFCF50F4010E010155
:1008B000E76F00018EDD03D0010100018DDD19D04D
:1008C0000101E35310E0036A040114512F0FE96E94
:1008D000000E0320EA6E12C4EFFF0101E76B000176
:1008E00078DD03D00101000177DD03D0D6DD01D032
:1008F00073DD78EF05F00101E491E3BFE481E39F4C
:10090000E4A119D0EE6BE3C1EDF1F06B080EEF6FCF
:100910000001D1DC02C0E6F101C0E5F1040E0101E5
:10092000E527000EE623E5C1E9FF040EE625EA6EA1
:10093000880EEF6E0FD0EE6BE3C1EDF1F06B080E99
:10094000EF6F0001B8DC010101C0E9FF040E0224D1
:10095000EA6EEF6A036AE351700F016E0F0E032215
:1009600001C0E9FF03C0EAFFEF90000138EF05F096
:100970000101E491E3BFE481E39FE4A119D0EE6BB0
:10098000E3C1EDF1F06B080EEF6F000194DC02C0E3
:10099000E6F101C0E5F1040E0101E527000EE623B2
:1009A000E5C1E9FF040EE625EA6E840EEF6E10D075
:1009B000EE6BE3C1EDF1F06B080EEF6F00017BDC35
:1009C000010101C0E9FF040E0224EA6E840EEF6EFD
:1009D000000140EF05F00101E491E3BFE481E39FF2
:1009E000E4A119D0EE6BE3C1EDF1F06B080EEF6FEF
:1009F000000161DC02C0E7F101C0E6F1040E010173
:100A0000E627000EE723E6C1E9FF040EE725EA6EBC
:100A1000EFCFE5F110D0EE6BE3C1EDF1F06B080E16
:100A2000EF6F000148DC010101C0E9FF040E022460
:100A3000EA6EEFCFE5F1E5AF02D0E5B502D0000EEA
:100A400001D0010E016E00014CEF05F014C4EDF170
:100A50000BDC01522EE004011151010A000105E0F6
:100A6000020A0BE0030A11E023D014C4E3F143D7D8
:100A70000101E76B0001ADDC1CD014C4E3F178D7B1
:100A80000101E76B0001A5DC14D00401506B516B30
:100A900014C4E3F100019FD7015204E0010E0401E8
:100AA000506F0001020E0101E76F000192DC01D0DE
:100AB00093DC78EF05F00401115100018DDC78EF33
:100AC00005F0206A040110517F0B000A000107E0C5
:100AD000010A07E0030A07E0230A07E008D059D615
:100AE00007D0B5D605D0B2D703D0E5D701D074DC96
:100AF00012EF07F00101EE6BE3C1EDF1F06B080EB0
:100B0000EF6F00015BEC01F0010101C0E9FF040E91
:100B10000224EA6EEFCFE5F1E451020806E1E5AD0B
:100B200002D0E46B02D0010EE46FE45103081CE133
:100B3000840EE56FEE6BE3C1EDF1F06B080EEF6F25
:100B400000015BEC01F002C0E9F101C0E8F1040E24
:100B50000101E827000EE923E8C1E9FF040EE925B9
:100B6000EA6E840EEF6E07D0E42D03D0C80EE56F59
:100B700002D0880EE56FD890E335036A000167EC78
:100B800000F00900F5CF03F00101E66F03C0E7F1C3
:100B9000EE6BE3C1EDF1F06B080EEF6F00015BEC63
:100BA00001F001C0E8F1010E01010124016E000E07
:100BB0000220036E01C0E9FF040E0324EA6EE6C1C1
:100BC000EFFFE7A101D0E581E7A301D0E583EE6B5C
:100BD000E3C1EDF1F06B080EEF6F00015BEC01F08B
:100BE000010101C0E9FF040E0224EA6EE5C1EFFF36
:100BF00000011200036A0101E851700FE96E0F0E47
:100C00000320EA6EEF521BE0EE6BE8C1EDF1F06BF2
:100C1000080EEF6F00015BEC01F002C0EAF101C0C9
:100C2000E9F1040E0101E927000EEA23E9C1E9FF19
:100C3000040EEA25EA6EEFCFEBF1EBAF02D0000E27
:100C400001D0010E016E00011200E3C1E8F1D2DF14
:100C50000152D8B49BD00101EE6BE3C1EDF1F06B12
:100C6000080EEF6F00015BEC01F002C0E9F101C07A
:100C7000E8F1040E0101E827000EE923010EE82542
:100C8000016E000EE921036E01C0E9FF040E03248A
:100C9000EA6EE4C1EFFFE651020820E1EE6BE3C12A
:100CA000EDF1F06B080EEF6F00015BEC01F002C09C
:100CB000E9F101C0E8F1040E0101E827000EE92383
:100CC000E8C1E9FF040EE925EA6EEFCFE7F1E7ADF1
:100CD00002D0E66B02D0010EE66F1AD0E65104088E
:100CE00017E1EE6BE3C1EDF1F06B080EEF6F000161
:100CF0005BEC01F0010101C0E9FF040E0224EA6E81
:100D0000EFCFE7F1E7AD03D0010EE66F01D0E66B60
:100D1000E62D03D0480EE76F02D0080EE76FEE6BAA
:100D2000E3C1EDF1F06B080EEF6F00015BEC01F039
:100D300002C0E9F101C0E8F1040E0101E827000E4C
:100D4000E923E8C1E9FF040EE925EA6EE7C1EFFFF8
:100D5000EE6BE3C1EDF1F06B080EEF6F00015BECA1
:100D600001F002C0E9F101C0E8F1040E0101E82739
:100D7000000EE923E8C1E9FF040EE925EA6EEF5011
:100D80008009EF6E010E016E04D00001000E016EAD
:100D90000101000112000101E35300E10001120012
:100DA000E4C16EFF0101E45303E0040E286E02D09B
:100DB000020E286E0001E2EF06F0216A206A2AC0C6
:100DC000E4F1EED7F3EF06F00101E3530DE1202C3F
:100DD00005D00001EEEC01F006D001012050020820
:100DE00003E10001EAD701010001120027300101EF
:100DF000E16FE133E1331F0EE11727524EE10401A9
:100E000000513C0B0101E26F430E04010017010188
:100E1000E251340825E104010451800B01E0046B28
:100E200000014FD66D98293C07D00101E36B030EFA
:100E3000E46F00015FDE12D00101E36B020EE46F8C
:100E4000000158DE2950FE0809E00101E36BE56B63
:100E500029C0E4F1040EE66F0001F7DE1CD00101A9
:100E6000E251040819E1E36B000195DF0101E36B36
:100E7000020EE46F00013EDE2950FE080CE0293C22
:100E800001D009D00101E36BE56B29C0E4F1010E4B
:100E9000E66F0001DADE010122D02750040812E1DA
:100EA0002968E36B000190DF293C01D009D00101E2
:100EB000E36BE56B29C0E4F1020EE66F0001C5DECD
:100EC0000DD0010127B406D0E1C1E3F1000163DFD9
:100ED00005D00101E1C1E3F1000176DF010100016C
:100EE000A5EF07F0A19A2852D8B439D06852D8B4E7
:100EF00036D068A403D069B40BEF01F06DB22FD0E7
:100F000068AA03D069BA29EF01F068A203D069B2D8
:100F100030EF01F068A003D069B0C9EF01F068A814
:100F200003D069B8E1EF01F068AC03D069BCE6EF2B
:100F300001F00101E06B68A60AD069A608D06CCF69
:100F400027F0000102EC00F051D703D0010106D0D8
:100F500000010101E051E02B0308EDE2000130EF58
:100F600000F00C424D4534333930204F78696D65BF
:100F7000746572000C44617461207265616479204B
:100F8000666F720A75706C6F616400000C4D65616C
:100F9000737572696E672E2E2E20202020000A2085
:100FA000202D2D2D2D2025303275202D2D2D2D205D
:100FB00020000C2053504F3220526561642045724E
:100FC000726F72000C2053504F32203D2025332E7B
:100FD00032660A202052203D2025322E3466000041
:100FE0000C49523A2025312E33662025312E3366A6
:100FF0000A5265643A25312E33662025312E336638
:1010000000000C4261642044617461206C6F616473
:101010000A636F64652073656E742E000C44432070
:10102000646174612073656E740A746F20504300AC
:101030000C3173742068616C66206F662041433602
:1010400036300A646174612073656E7420746F2099
:10105000504300000C326E642068616C66206F663D
:101060002041433636300A646174612073656E74C2
:1010700020746F20504300000C3173742068616C41
:1010800066206F662041433934300A646174612000
:1010900073656E7420746F20504300000C326E64D0
:1010A0002068616C66206F662041433934300A64E1
:1010B0006174612073656E7420746F20504300006A
:1010C0002F664261642044617461206C6F61642FFB
:1010D0006E636F64652073656E742E006D926D6A29
:1010E000696A080E6F6E945030090101946E286A87
:1010F000196AF2BE198EF29E0001B3EC01F019BE1E
:10110000F28E84EF08F0EAD7B0EF08F0196AF2BE69
:10111000198EF29EB3EC01F019BEF28E6D926D6ADB
:101120006D8C00D000D000006D9C140E6F6E696A4B
:101130006D86010E286EA0EF08F06DB601D0E6D7DF
:10114000282C0BD06DBA09D0686A696AA08AC00ED3
:10115000F212110E696E020E286EB1EF08F0D3D7AD
:10116000ECD728500208FCE106EF1CF0010EEA6EF5
:10117000C80EE96EEF500EE00F0E016E006A002EF1
:10118000FED7012EFBD78F0E006E002EFED700007B
:10119000EF2EF2D712000101CFB102D08A9001D018
:1011A0008A809390CFB302D08A9201D08A829392A0
:1011B000CFB502D08A9401D08A849394CFB702D05D
:1011C0008A9601D08A869396000092928982070EB1
:1011D000006E002EFED700D092928992000112007C
:1011E00092948994EF0E006E002EFED700D001017C
:1011F000CC5303E09294898402D0929489940000A5
:1012000092928992CD39CE6F0F0ECE17CEC1CFF10B
:101210000001C1DF0101CD510F0BCE6FCF6F000177
:10122000BADF120092948994929289920F0E010172
:10123000C86F00019BDF01017B6B7B5102080CE34F
:10124000030ECF6F0001A7DF050E0101C86F00017B
:101250008DDF01017B2BF1D7020ECF6F00019BDFE9
:1012600001017B6B7B51030813E3036A7B5100018F
:1012700001EC01F001017C6FCC6BCD6F0001B0DFA0
:10128000050E0101C86F000171DF01017B2BEAD758
:10129000000108EF1CF00101C92D01D003D0400E60
:1012A000CA6F01D0CA6B010EC85DCA27CA51800936
:1012B000CB6FCC6BCD6F000193DF8BEF09F0010199
:1012C000C7510C0A000105E0060A0FE0020A15E00A
:1012D0001BD00101CC6B010ECD6F000181DF020E2E
:1012E0000101C86F000142DF16D0010E0101C86F75
:1012F000020EC96F0001CFD70ED00101CC6B100ECA
:10130000CD6F00016DDF07D0010E0101CC6FC7C1A9
:10131000CDF1000165DF12000900F5520CE0F6CFB7
:10132000A0F1F7CFA1F1F5CFC7F1C9DFA0C1F6FF5A
:10133000A1C1F7FFF1D712009296898694908B9005
:10134000A80E01017B6F929689967C6B7C510708F1
:1013500029E3070ED8807C557D6F7BC100F07D515D
:10136000016E04E0D8900032012EFCD700A003D01B
:101370009298898802D092988998070E006E002E64
:10138000FED700D094908B80270E006E002EFED7E3
:1013900000D094908B90070E006E002EFED700D0E8
:1013A0007C2BD4D79296898692988998000110EF69
:1013B0001CF092908980020E01017B6FFA0EC86FBB
:1013C0000001D4DE01017B2FF9D7929089900001B2
:1013D00012002150016E22EF1CF0036A01018C51B2
:1013E000700FE96E0F0E0320EA6EEF521DE0196ACE
:1013F000F2BE198EF29EEE6B8CC1EDF1F06B080E11
:10140000EF6F00015BEC01F019BEF28E02C08EF1AD
:1014100001C08DF1010101C0E9FF040E0224EA6E52
:10142000EFCF8FF18FAF02D0000E01D0010E016E11
:1014300000011200196AF2BE198EF29E0101EE6BD4
:1014400091C1EDF1F06B080EEF6F00015BEC01F064
:1014500019BEF28E01C09BF1020E01010124016E42
:10146000000E0220036E01C0E9FF040E0324EA6EA1
:10147000ECCF97F1ED52EFCF96F1196AF2BE198ECB
:10148000F29EEE6B91C1EDF1F06B080EEF6F000173
:101490005BEC01F019BEF28E01C09BF1010E01015F
:1014A0000124016E000E0220036E01C0E9FF040E4C
:1014B0000324EA6E9A6BEFCF99F1196AF2BE198E86
:1014C000F29EEE6B91C1EDF1F06B080EEF6F000133
:1014D0005BEC01F019BEF28E010101C0E9FF040EC0
:1014E0000224EA6EEFCF98F198A101D09A8198A3D7
:1014F00001D09A839A51955D08E303E19451995D77
:1015000004E29AC195F199C194F193C1EAFF92C1A5
:10151000E9FF97C1E2FF96C1E1FF95C102F094C1D6
:1015200001F0015202E0022A02D0025206E0E6CFA8
:10153000EEFF012EFCD7022EFAD794C101F095C11F
:1015400002F00001AFEF0AF08CC191F18EC193F16E
:101550008DC192F190C195F18FC194F16BD702C00A
:1015600090F101C08FF1196AF2BE198EF29E8CC102
:10157000E3F1020E0101E46F00017AEC05F019BEFF
:10158000F28E01018FC101F090C102F0000100EF65
:101590000BF00101836B826BD8907B35036A0001ED
:1015A00067EC00F00900F5CF03F00101886F03C07C
:1015B00089F189517F5D09E303E17E51885D05E290
:1015C00089C18BF188C18AF104D07FC18BF17EC1C2
:1015D0008AF1856B846B89C187F188C186F17BC1F3
:1015E0008CF10001FADE01521FE07BC18CF17DC15C
:1015F0008EF17CC18DF18BC190F18AC18FF1A4D79E
:1016000002C087F101C086F1010186517C27875114
:101610007D2386517E5F87517F5B8651822787516C
:10162000832311D00AD000010101842BD8B4852B6B
:10163000010EC86F00019ADD01018051845DCBE18C
:101640008151855DC8E18851865D0FE18951875DD3
:101650000CE18051811106E08051845D03E18151EC
:10166000855D03E07E517F11A4E182C101F083C159
:1016700002F000013BEF1CF00101986B996B010E29
:101680009A6FDA6AD96A9D6F900E9C6F010EEA6EAE
:10169000940EE96E9DC1E2FF9CC1E1FF9AC19BF1EE
:1016A000D890E550EE02F3509823F45099239B2FE5
:1016B000F7D798C1DEFF99C198F1996BD8B0992BF3
:1016C0009C2BD8B49D2B9A2B9A510508DFE1000181
:1016D0001200196AF2BE198EF29E8EC1E8F1FAEC80
:1016E00005F019BEF28E015254E0196AF2BE198E4D
:1016F000F29E0101EE6B8EC1EDF1F06B080EEF6F03
:1017000000015BEC01F019BEF28E02C097F101C03E
:1017100096F1040E01019627000E9723020E9625DE
:10172000016E000E9721036E01C0E9FF040E032431
:10173000EA6EECCF95F1ED52EFCF94F195C1EAFF4F
:1017400094C1E9FF90C1E2FF8FC1E1FF92C102F0B5
:1017500091C101F0015202E0022A02D0025206E0D9
:10176000E6CFEEFF012EFCD7022EFAD7196AF2BEA1
:10177000198EF29E8EC1E3F192C1E5F191C1E4F1BF
:1017800093C1E6F1000125EC06F019BEF28E01507E
:1017900002D0000E016E12000101826B816BD890A5
:1017A0007B35036A000167EC00F00900F5CF03F018
:1017B0000101866F03C087F182517F5DD8A069D097
:1017C00003E17E51815D65E2936B926B916B80C109
:1017D00090F1976B966B030E956FE80E946F000176
:1017E0004BDF03C08BF102C08AF101C089F100C058
:1017F00088F1010181517E5D8C6F82517F598D6F1F
:1018000087518D5D09E303E18C51865D05E287C157
:1018100085F186C184F106D081517E5D846F82514D
:101820007F59856F81517C258C6F82517D218D6F11
:101830007BC18EF1906F8CC18FF185C192F184C113
:1018400091F1020E936F000144DF0101839101B019
:10185000838183B10DD0030E006E002EFED700D021
:10186000FF0E8827D8A08927D8A08A27D8A08B2741
:1018700083B10AD08053D6E08853D4E18953D2E1B2
:101880008A53D0E18B53CEE1865181278751822341
:1018900093D77E51815D51E17F51825D4EE1936B23
:1018A000926B916B80C190F1976B966B030E956F65
:1018B000E80E946F0001E0DE03C08BF102C08AF1F4
:1018C00001C089F100C088F17BC18EF10101906BEC
:1018D0008F6B926B916B020E936F0001FADE010128
:1018E000839101B0838183B10DD0030E006E002E71
:1018F000FED700D0FF0E8827D8A08927D8A08A2736
:10190000D8A08B2783B119D08053D8A402D000016E
:10191000DBD78853D8B402D00001D6D78953D8B4C6
:1019200002D00001D1D78A53D8B402D00001CCD75D
:101930008B53D8B402D00001C7D7000E83B1010E7B
:10194000016E00011200800E0101C76FC63BF00E50
:10195000C617C651C71392968996C86BC851070817
:1019600029E3070ED880C855CC6FC7C100F0CC5111
:10197000016E04E0D8900032012EFCD700A003D005
:101980009298898802D092988998070E006E002E4E
:10199000FED700D094908B80270E006E002EFED7CD
:1019A00000D094908B90070E006E002EFED700D0D2
:1019B000C82BD4D79298899892968986928A80AAC1
:1019C000FDD792968996CA6BC96BCB6BCB510F082A
:1019D00026E394908B80070E006E002EFED700D079
:1019E000948282A213D00F0ED880CB55CC6F036A9D
:1019F000010E026ECC51006E05E0D890023603361F
:101A0000002EFBD70250C9130350CA1394908B9039
:101A1000070E006E002EFED700D0CB2BD7D79296A4
:101A20008986C9C101F0CAC102F000011200010E8D
:101A30000101A15F0DE3010EEA6EA10EE96EEF5008
:101A400007E0020E006E002EFED700D0EF2EF9D771
:101A5000000177EF0EF07AC1EAFF79C1E9FF0101D9
:101A6000D3C1EFFFE92AD8B4EA2AEF6A792BD8B4B8
:101A70007A2B000112000900F6CFC7F1F7CFC8F1A9
:101A8000F5CFD3F1E8DFC7C1F6FFC8C1F7FF010109
:101A9000C62F01D002D00001EED7000112000101D3
:101AA000A351016AA25D03E2A2C100F00CD0006A5A
:101AB000080EA46FA2370036A351005CD8B0006EA8
:101AC0000136A42FF7D7000112000150A0C1A2F1E6
:101AD000640E0101A36F0001E2DF00C0A0F101501C
:101AE000300E08E10101A1A30FD0A1B70DD0A1B91B
:101AF000200E04D00101A197A199A181012601C066
:101B0000D3F10001A8DF0101A0C1A2F10A0EA36F69
:101B10000001C5DF00C0A0F10150300E08E1010155
:101B2000A1B70AD0A1A108D0A1B9200E00010126B9
:101B300001C0D3F190DF0101300EA027A0C1D3F185
:101B4000000189DF8FEF0EF0C7C1C9F1C6C1C8F12E
:101B5000C9C1EAFF0101C8C1E9FFEF5206E0C82B85
:101B6000D8B4C92B0001F4D70101C651C85D006E7D
:101B7000C751C959036E00C001F0026E0001120086
:101B80000101906B8F6B8E6B8D6B946B936B926B73
:101B9000916B8C0EF66E0F0EF76E00018CEC09F057
:101BA0000101986B976B966B956B9C6B9B6B9A6B1B
:101BB000996B9D6B9D513F08D8A0DED0986B976BB9
:101BC000966B956B9C6B9B6B9A6B996B9E6B9E5106
:101BD0001F0819E3C66B0001B6DE01500101992709
:101BE00002509A23000E9B239C23020EC66F000115
:101BF000AADE01500101952702509623000E97237B
:101C000098239E2BE4D7D8909D35036AB00FE96ED8
:101C1000000E0320EA6E9C31036E9B31026E9A31F6
:101C2000016E9931006E033202320132003203320A
:101C30000232013200320332023201320032033208
:101C4000023201320032070E031601C0ECFFED52E2
:101C500000C0EFFFD8909D35036A300FE96E000E8B
:101C60000320EA6E9831036E9731026E9631016E51
:101C70009531006E033202320132003203320232F9
:101C800001320032033202320132003203320232B8
:101C900001320032070E031601C0ECFFED5200C006
:101CA000EFFF010EC66F00014EDE015001019127CA
:101CB00002509223000E93239423030EC66F00015B
:101CC00042DE015001018D2702508E23000E8F232A
:101CD00090234F0EC86F0001B6EC08F093988A88E5
:101CE000020E0101A06FFA0EA16F0001A0D6010142
:101CF000A02FF9D793988A98010E7A6F7B0E796F8F
:101D00009E0EF66E0F0EF76E080EC66F0001B3DE64
:101D10009DC1A0F1010E0101A16F0001D6D6AA0E4E
:101D2000F66E0F0EF76E070E0101C66F0001A3DEFF
:101D300001019F6B010EC76F7B0EC66F000104DFB0
:101D400002C003F00150035205E1015001019F5D03
:101D500011E20001036A01019F517B0FE96E010E40
:101D60000320EA6EEFCFC7F100015FEC09F001013B
:101D70009F2BE0D79D2B1ED79031036E8F31026EC3
:101D80008E31016E8D31006E03320232013200322B
:101D900003320232013200320332023201320032A7
:101DA0000332023201320032033202320132003297
:101DB000030E031601C031F100C030F19431036EFF
:101DC0009331026E9231016E9131006E0332023214
:101DD0000132003203320232013200320332023267
:101DE0000132003203320232013200320332023257
:101DF00001320032030E031601C033F100C032F18C
:101E0000000112008E0E006EC9C101F0C8C102F0BF
:101E1000036A015209E102C001F0026A080E005E85
:101E2000015202E1006A08D0D89001BE04D0023607
:101E300001360006F9D7019E12000101D351D8B432
:101E400071D0006ED751D8B46DD0002604E3810E56
:101E5000002668E204D07F0E005E64E363E0D4C134
:101E6000DBF1D851DB1BD48FD88FD651DA03F4CFF6
:101E7000DDF1D551D903F4CF03F0F3CFDCF1DA0370
:101E8000F350DD27F450DC23000E0322D651D90392
:101E9000F350DD27F450DC23000E026A03220222F5
:101EA000D451DA03F350DC27F4500322000E02224F
:101EB000D451D903F3500326F4500222000E016AD4
:101EC0000122D651D803F350DC27F4500322000E30
:101ED00002220122D551D803F3500326F4500222E6
:101EE000000E0122D451D803F3500226F4500122EF
:101EF000002A01BE05D0DC37033602360136000663
:101F0000000EDCAF0AD0032A02220122015005E1B3
:101F1000025003E1035001E1002ADBBF018EDBAF79
:101F2000019E04D0006A016A026A036A000112007D
:101F30000101B551D8B4A5D0C16FB951D8B4A1D061
:101F4000C15F05E37F0EC127D8B09BD006D0810EBC
:101F5000C15FD8A096D0D8B494D0C1C100F0016AB6
:101F6000026A036AC06BB6C1BFF1BF8FB7C1BEF1D1
:101F7000B8C1BDF1190EC16FBC51BD5F0DE2010EBC
:101F8000BE5F0AE2BF5F08E2C05F06E2C02BBF2B64
:101F9000BE2BBC51BD2728D0BB51BE5F12E2010E43
:101FA000BF5F0FE2C05F0DE2C02BBF2BBB51BE274E
:101FB000BC51BD2719E3BE2B17E1BF2B15E1C02B88
:101FC00013D0BA518009BF5F0EE2010EC05F0BE271
:101FD000C02BBA518009BF27BB51BE27E9E3BF2BF5
:101FE000E7E1C02BE5D70380C12F01D00BD0D890FB
:101FF000BD37BE37BF37C037D890033602360136FB
:10200000C237BAD7C2A106D0D89001320232033209
:10201000C23302D0000635E0C2BF1ED0D890BD3713
:10202000BE37BF37C037BC51BD5F07E2010EBE5F90
:1020300004E2BF5F02E2C05F1AE3BB51BE5F05E28C
:10204000010EBF5F02E2C05F12E3BA518009BF5FB9
:1020500003E2010EC05F0BE3032A09E1022A07E154
:10206000012A05E1002A0DE0013202320332B6C135
:10207000C1F1BA51C11BC1AF02D0018E06D0019E81
:1020800004D0006A016A026A036A00013DEF14F09D
:10209000800ED8A202D00101D31B0101D86BD96BED
:1020A000CFC1D7F1D351D71BCE51D8B4DFD0D66F23
:1020B000006ED251D8B4E3D0D65FD8B483D03EE31B
:1020C000D3C1DCF1DC8FD4C1DBF1D5C1DAF1D96B3E
:1020D000D890DC33DB33DA33D933D62FF8D7D7AF08
:1020E00003D0D881E0D0D891D691D889010EEA6E7C
:1020F000D10EE96EEBD0D899D7BF0AD0D6A113D0B4
:10210000DC33DB33DA33D933002AD8B4C7D00BD071
:10211000DCBF0CD0D890D937DA37DB37DC37000694
:10212000D8B4BCD0F5D7D88D6DD0D89DCFC1D7F15C
:10213000CFAF02D0DC8FABD0DC9FA9D0D2C1D6F11B
:10214000D2C100F0CE51D65FCFC1DCF1DC8FD0C15F
:10215000DBF1D1C1DAF1D96BD890DC33DB33DA3380
:10216000D933D62FF8D7D7AF03D0D8839CD0D89304
:10217000D691D88B010EEA6ED50EE96EA7D0D89B0A
:10218000D7BF0AD0D6A113D0DC33DB33DA33D9334F
:10219000002AD8B483D00BD0DCBF0CD0D890D9376C
:1021A000DA37DB37DC370006D8B478D0F5D7D88FEC
:1021B00029D0D89FD3C1D7F1D3AF02D0DC8F67D05D
:1021C000DC9F65D0D3C1DCF1DC8FD4C1DBF1D5C19C
:1021D000DAF1D7AF04D0DC9FD88565D0D895D96B1C
:1021E000D691010EEA6ED10EE96E70D0D7BF1CD029
:1021F000CFC1D7F1D6A106D0DC33DB33DA33D93304
:10220000002A4CE0D9AF0BD0DA2B09E1DB2B07E138
:10221000DC2B05E1DC33DB33DA33002A3FE0D8BDC9
:1022200084D7D8BFC6D71CD0800EDC1BDCAF04D04F
:102230003AD0D3C1D7F10AD0CFC1D7F1DC5306E1F0
:10224000DB5304E1DA5302E1006A21D0DCBF08D09D
:10225000D890D937DA37DB37DC37002EF7D71ED0E6
:10226000D7AF02D0DC8F13D0DC9F11D0D2C100F0E9
:10227000D3C1DCF1D4C1DBF1D5C1DAF108D0CEC1D4
:1022800000F0CFC1DCF1D0C1DBF1D1C1DAF1DCC1AA
:1022900001F0DBC102F0DAC103F034D0006A016A58
:1022A000026A036A2FD0D96BDA1FDB1FDC1FD91F2C
:1022B000D92B05E1DA2B03E1DB2B01E1DC2BD8B1D3
:1022C00012D7D8B354D7D8B589D7B3D7EF50DA27B8
:1022D00005E3DB2B03E1DC2BD8B4D681ED52EF50C4
:1022E000DB2703E3DC2BD8B4D681ED52EF50EFBEF1
:1022F00001D0800ADC27D8B0D681D8B9FCD6D8BBAB
:102300003ED774D700011200B6C1BDF10101BA5128
:10231000BD1BBDAF05D0D894D890B6BFD8802FD004
:10232000B6C1BDF1B9C1BEF1B551BE5F06E0BDAFEA
:1023300026D0D850010AD86E22D0BAC1BEF1B6510B
:10234000BE5F06E0BDAF1BD0D850010AD86E17D0D3
:10235000BBC1BEF1B751BE5F06E0BDAF10D0D850D3
:10236000010AD86E0CD0BCC1BEF1B851BE5F06E008
:10237000BDAF05D0D850010AD86E01D0D890000169
:1023800012000900F5520DE0F6CFB5F1F7CFB6F126
:10239000F5CFD3F12BEC0DF0B5C1F6FFB6C1F7FFC9
:1023A000F0D7C1EF14F00101D351B608D36F036A1F
:1023B000D4C1D7F1D48FD890D433D533D6330332A8
:1023C000023201320032D32FF6D7D7AF0BD0001E26
:1023D000011E021E031E002AD8B4012AD8B4022A04
:1023E000D8B4032A00016AEF12F0D8B204D0010E6B
:1023F000EA6EDB0EE96E006A016A026A036A010195
:10240000DB6BDC6BDD6BDE6BDA51D911D811D711C8
:102410002CE0200EDF6FD890D337D437D537D6379E
:10242000DB37DC37DD37DE37DA51DE5D08E1D951E5
:10243000DD5D05E1D851DC5D02E1D751DB5D0FE3E5
:10244000D751DB5FD851D8A0D83DDC5FD951D8A097
:10245000D93DDD5FDA51D8A0DA3DDE5FD8800036A5
:10246000013602360336DF2FD6D7DBC1EFFFDCC1E2
:10247000ECFFDDC1ECFFDEC1ECFF00011200E95012
:102480000101CB6FCA51CD6F1BE0C9C1D6F1C8C1E4
:10249000D5F1C7C1D4F1C6C1D3F1DA6BD96B200E27
:1024A000D86F820ED76F0001C8DC03C0C9F102C02B
:1024B000C8F101C0C7F100C0C6F10101CD2FE5D7B9
:1024C000C9C1D6F1C8C1D5F1C7C1D4F1C6C1D3F1D4
:1024D000000169D703C0C9F102C0C8F101C0C7F14A
:1024E00000C0C6F10101C9AF0DD0CB07CB8BC61F11
:1024F000C71FC81FC91FC62BD8B4C72BD8B4C82B39
:10250000D8B4C92B3B0ED26F9A0ED16FCA0ED06FC2
:10251000CF6B0A0ECD6FCA51D8B4CB2BD882010E27
:10252000EA6EC60EE96EC9C1D6F1C8C1D5F1C7C100
:10253000D4F1C6C1D3F1D2C1DAF1D1C1D9F1D0C140
:10254000D8F1CFC1D7F1000150DF0150005213E1A3
:102550000101CA29CD5DD8A402D000010CD0CB5115
:102560000DE00F0BCD5D01E044E2CBBF42D0CBBD0F
:1025700005D0200E37D0200E0101CB17CBAB0FD0EA
:10258000CB9BCA51D8A4CB070050CB6F2D0ED36F75
:1025900000012BEC0DF00101CB51006ECB6BCA5149
:1025A000CD5D0DE10050CB6F2E0ED36F00012BECF3
:1025B0000DF00101CB51006E200ECB17000E300E36
:1025C000CBAB10D0CB9BCA51D8A4CB070050CB6F5C
:1025D0002D0ED36F00012BEC0DF00101CB51006EDD
:1025E000CB6B300E002600C0D3F100012BEC0DF0B8
:1025F0000101D892D2C1D6F1D1C1D5F1D0C1D4F167
:10260000CFC1D3F1DA6BD96BD86B0A0ED76F00014B
:10261000ECDE03C0D2F102C0D1F101C0D0F100C0A4
:10262000CFF10101CD2F7AD70001120001017C6B9F
:102630007B6B7E697D69806B7F6B82698169836B4F
:1026400083513F08D8A09ED0D8908335036A300FBD
:10265000E96E000E0320EA6EECCF03F0ED52EFCFEF
:1026600001F07C51035C11E303E101507B5D0DE25D
:10267000D8908335036A300FE96E000E0320EA6EAE
:10268000ECCF03F0ED52EF5003D07CC103F07B514F
:102690007B6F03C07CF1D8908335036AB00FE96E7D
:1026A000000E0320EA6EECCF03F0ED52EFCF01F005
:1026B0008051035C11E303E101507F5D0DE2D8908E
:1026C0008335036AB00FE96E000E0320EA6EECCF8B
:1026D00003F0ED52EF5003D080C103F07F517F6FC4
:1026E00003C080F1D8908335036A300FE96E000E85
:1026F0000320EA6EECCF03F0ED52EFCF01F0035070
:102700007E5D11E303E17D51015C0DE2D8908335DC
:10271000036A300FE96E000E0320EA6EECCF03F07F
:10272000ED52EF5003D07EC103F07D517D6F03C0A9
:102730007EF1D8908335036AB00FE96E000E032056
:10274000EA6EECCF03F0ED52EFCF01F00350825D63
:1027500011E303E18151015C0DE2D8908335036AF6
:10276000B00FE96E000E0320EA6EECCF03F0ED52DD
:10277000EF5003D082C103F08151816F03C082F119
:10278000832B5ED77D517B5D846F7E517C59856F35
:1027900081517F5D866F82518059876F85C1C9F1F4
:1027A00084C1C8F1000102EC0FF003C0B8F102C00F
:1027B000B7F101C0B6F100C0B5F133C1C9F132C102
:1027C000C8F102EC0FF0B8C1D6F1B7C1D5F1B6C16E
:1027D000D4F1B5C1D3F103C0DAF102C0D9F101C01F
:1027E000D8F100C0D7F11DEC0FF003C08BF102C08F
:1027F0008AF101C089F100C088F187C1C9F186C1A1
:10280000C8F102EC0FF003C0B8F102C0B7F101C08B
:10281000B6F100C0B5F131C1C9F130C1C8F102EC67
:102820000FF0B8C1D6F1B7C1D5F1B6C1D4F1B5C179
:10283000D3F103C0DAF102C0D9F101C0D8F100C070
:10284000D7F11DEC0FF003C08FF102C08EF101C073
:102850008DF100C08CF18BC1B8F18AC1B7F189C18B
:10286000B6F188C1B5F18FC1BCF18EC1BBF18DC18C
:10287000BAF18CC1B9F198EF0FF003C093F102C027
:1028800092F101C091F100C090F10101D66BD56BBE
:10289000480ED46F830ED36F93C1DAF192C1D9F190
:1028A00091C1D8F190C1D7F100011DEC0FF0D88291
:1028B0000101D16BD06B5C0ECF6F850ECE6F03C064
:1028C000D5F102C0D4F101C0D3F100C0D2F10001B2
:1028D00048EC10F003C078F102C077F101C076F146
:1028E00000C075F10101946B956B966B976B986BBB
:1028F000996B9A6B9B6B9C6B9D6B9E6B9F6BA06B9C
:10290000A16BA26BA36BA46BA56BA66BA76BA86B4B
:10291000A96BAA6BAB6BAC6BAD6BAE6BAF6BB06BFB
:10292000B16BB26BB36BB86BB76B4A0EB66F850EFB
:10293000B56F78C1BCF177C1BBF176C1BAF175C191
:10294000B9F10001E1DC12E278C1B8F177C1B7F169
:1029500076C1B6F175C1B5F10101BC6BBB6B200E40
:10296000BA6F850EB96F0001CFDC0CE3010E0101D7
:102970007A6F940E796FB20EF66E0F0EF76E00013D
:1029800000D535D0010E01017A6F940E796FC40E17
:10299000F66E0F0EF76E090EC66F00013BEC0DF0E0
:1029A000020EE96E78C1C9F177C1C8F176C1C7F1ED
:1029B00075C1C6F10101CA6F000161DDD20EF66E6C
:1029C0000F0EF76E070E0101C66F00013BEC0DF014
:1029D000890EE96E93C1C9F192C1C8F191C1C7F1E5
:1029E00090C1C6F1040E0101CA6F000148DD01016A
:1029F000B46B010EC76F940EC66F0001A4EC0DF00E
:102A000002C003F00150035205E101500101B45D21
:102A100011E20001036A0101B451940FE96E010E45
:102A20000320EA6EEFCFC7F100015FEC09F001016E
:102A3000B42BDFD70C0EB56FFA0EC86F0001B6ECE1
:102A400008F00101B52FF8D70001120001017E6BDB
:102A50007D6B7C6B7B6B826B816B806B7F6B866B22
:102A6000856B846B836B8A6B896B886B876B8B6BD5
:102A70008B51030851E3C66B0001A3EC0CF001C0BD
:102A800000F002C001F0026A036A005001017B27D6
:102A900001507C2302507D2303507E23010EC66F1C
:102AA0000001A3EC0CF001C000F002C001F0026ACA
:102AB000036A005001017F270150802302508123C7
:102AC00003508223020EC66F0001A3EC0CF001C07C
:102AD00000F002C001F0026A036A0050010187277A
:102AE000015088230250892303508A23030EC66FA6
:102AF0000001A3EC0CF001C000F002C001F0026A7A
:102B0000036A00500101832701508423025085236A
:102B1000035086238B2BACD77E31036E7D31026E42
:102B20007C31016E7B31006E0332023201320032A1
:102B30003F0E031601C08DF100C08CF18231036E8F
:102B40008131026E8031016E7F31006E03320232BC
:102B5000013200323F0E031601C033F100C032F1E2
:102B60008A31036E8931026E8831016E8731006EC1
:102B700003320232013200323F0E031601C08FF1E0
:102B800000C08EF18631036E8531026E8431016E94
:102B90008331006E03320232013200323F0E0316DF
:102BA00001C031F100C030F18CC134F18DC135F17B
:102BB00032C136F133C137F18EC138F18FC139F1ED
:102BC00030C13AF131C13BF100016FEF1BF001015F
:102BD000AB6BAC6BAD6BAE6BAF6BB06BB16BB26B29
:102BE000B36BB46BB56BB66BB76BB86BB96BBA6BD9
:102BF000BB6BBC6BBD6BBE6BBF6BC06BC16BC26B89
:102C0000C36BC351030851E3C66B0001A3EC0CF086
:102C100001C000F002C001F0026A036A0050010125
:102C2000AB270150AC230250AD230350AE23010E5D
:102C3000C66F0001A3EC0CF001C000F002C001F06F
:102C4000026A036A00500101AF270150B02302500D
:102C5000B1230350B223020EC66F0001A3EC0CF0A7
:102C600001C000F002C001F0026A036A00500101D5
:102C7000B3270150B4230250B5230350B623030EEB
:102C8000C66F0001A3EC0CF001C000F002C001F01F
:102C9000026A036A00500101B7270150B8230250AD
:102CA000B9230350BA23C32BACD7C46BC451030858
:102CB000D8A096D0D890C435036ABB0F016E010E20
:102CC000032201C0C6F103C0C7F1C451040DF35083
:102CD000036AAB0FE96E010E0320EA6EEFCFC8F175
:102CE000ECCFC9F1ECCFCAF1ECCFCBF1CB31036E15
:102CF000CA31026EC931016EC831006E0332023230
:102D0000013200323F0E0316C7C1EAFFC6C1E9FF18
:102D100001C0ECFFED5200C0EFFFC451040DF350B1
:102D2000036A7B0F016E010E032201C0C6F103C0CE
:102D3000C7F1D890C435036ABB0FE96E010E0320BA
:102D4000EA6EECCF03F0ED52EFCFC8F103C0C9F14A
:102D5000000102EC0FF003C0CBF102C0CAF101C0C8
:102D6000C9F100C0C8F1EACFCDF1E9CFCCF1D882EA
:102D700003C0D1F102C0D0F101C0CFF100C0CEF14B
:102D80000101D56BD46BD36B8E0ED26F000148EC72
:102D900010F0CDC1EAFFCCC1E9FF6F0E0101D66F83
:102DA000120ED56F030ED46F720ED36F03C0DAF11B
:102DB00002C0D9F101C0D8F100C0D7F100011DEC6B
:102DC0000FF0C7C1EAFFC6C1E9FF00C0EFFF01C0B5
:102DD000ECFF02C0ECFF03C0ECFF0101C42B66D77F
:102DE000010E7A6F8B0E796FE00EF66E0F0EF76E96
:102DF000050EC66F00013BEC0DF0890EE96E7EC139
:102E0000C9F17DC1C8F17CC1C7F17BC1C6F1030E18
:102E10000101CA6F00013FEC12F0200E0101D36FD7
:102E200000012BEC0DF0890EE96E82C1C9F181C160
:102E3000C8F180C1C7F17FC1C6F1030E0101CA6F9D
:102E400000013FEC12F0F00EF66E0F0EF76E050E5D
:102E50000101C66F00013BEC0DF0890EE96E86C1E1
:102E6000C9F185C1C8F184C1C7F183C1C6F1030EA0
:102E70000101CA6F00013FEC12F0200E0101D36F77
:102E800000012BEC0DF0890EE96E8AC1C9F189C1F0
:102E9000C8F188C1C7F187C1C6F1030E0101CA6F2D
:102EA00000013FEC12F00101C56B010EC76F8B0EE4
:102EB000C66F0001A4EC0DF002C003F001500352F4
:102EC00005E101500101C55D11E20001036A010144
:102ED000C5518B0FE96E010E0320EA6EEFCFC7F1EB
:102EE00000015FEC09F00101C52BDFD7040EC66FAE
:102EF000FA0EC86F0001B6EC08F00101C62FF8D732
:102F0000000112008E0E006E01019451005E95C109
:102F100002F096C101F0028E005209E0D8900252F0
:102F200002E1015204E002320132002EF7D795AFE0
:102F300005D0011E021E012AD8B4022A0001120087
:102F40000101939187C18CF186C18BF185C18AF112
:102F500084C189F187C1B8F186C1B7F185C1B6F1E5
:102F600084C1B5F1BC6BBB6BBA6BB96B000184EC6F
:102F700011F006E3010193818A51800A8A6F0001F2
:102F80008CC1B8F18BC1B7F18AC1B6F189C1B5F175
:102F90000101BC6BBB6BBA6B8E0EB96F000184EC88
:102FA00011F001E218E18CC197F18BC196F18AC151
:102FB00095F189C194F1A6DF02C0C9F101C0C8F141
:102FC00002EC0FF003C090F102C08FF101C08EF14E
:102FD00000C08DF1D1D08CC1B8F18BC1B7F18AC1DD
:102FE000B6F189C1B5F1800E0101BC6F960EBB6FC1
:102FF000180EBA6F960EB96F000184EC11F0D8A0CC
:10300000B3D08CC1D6F18BC1D5F18AC1D4F189C1BD
:10301000D3F10101DA6BD96BD86B700ED76F000159
:103020001DEC0FF003C097F102C096F101C095F1BD
:1030300000C094F167DF02C092F101C091F18CC130
:10304000D6F18BC1D5F18AC1D4F189C1D3F1010187
:10305000DA6BD96BD86B700ED76F00011DEC0FF0D7
:1030600003C097F102C096F101C095F100C094F140
:1030700092C1C9F191C1C8F102EC0FF0D88297C199
:10308000D1F196C1D0F195C1CFF194C1CEF103C079
:10309000D5F102C0D4F101C0D3F100C0D2F148ECA7
:1030A00010F00101D66BD56BD46B8E0ED36F03C0BD
:1030B000DAF102C0D9F101C0D8F100C0D7F10001A6
:1030C0001DEC0FF003C08CF102C08BF101C08AF13E
:1030D00000C089F192C1C9F191C1C8F102EC0FF0B1
:1030E0000101D66BD56BD46B8E0ED36F03C0DAF1B2
:1030F00002C0D9F101C0D8F100C0D7F100011DEC28
:103100000FF003C090F102C08FF101C08EF100C03A
:103110008DF18CC197F18BC196F18AC195F189C16E
:1031200094F1F0DE02C0C9F101C0C8F102EC0FF069
:10313000D89290C1D1F18FC1D0F18EC1CFF18DC1A4
:10314000CEF103C0D5F102C0D4F101C0D3F100C06B
:10315000D2F148EC10F003C090F102C08FF101C031
:103160008EF100C08DF108D08CC190F18BC18FF130
:103170008AC18EF189C18DF18CC197F18BC196F115
:103180008AC195F189C194F1BDDE02C0C9F101C0C7
:10319000C8F102EC0FF0D8828CC1D1F18BC1D0F113
:1031A0008AC1CFF189C1CEF103C0D5F102C0D4F1FB
:1031B00001C0D3F100C0D2F148EC10F003C08CF193
:1031C00002C08BF101C08AF100C089F1010193A115
:1031D00003D08E51800A8E6F8CC1B8F18BC1B7F1CC
:1031E0008AC1B6F189C1B5F1BC6BBB6BBA6BB96B67
:1031F000000184EC11F03CE0010193A11CD0885344
:103200001AE1D88290C1D1F18FC1D0F18EC1CFF136
:103210008DC1CEF1D56BD46BD36B7F0ED26F000115
:1032200048EC10F003C090F102C08FF101C08EF1A4
:1032300000C08DF1010193B11CD0882D1AD0D89215
:1032400090C1D1F18FC1D0F18EC1CFF18DC1CEF13E
:10325000D56BD46BD36B7F0ED26F000148EC10F0AE
:1032600003C090F102C08FF101C08EF100C08DF15A
:10327000010187C1B8F186C1B7F185C1B6F184C13A
:10328000B5F1BC6BBB6BBA6BB96B000184EC11F090
:1032900006E10101906B8F6B8E6B8D6B00018DC110
:1032A00000F08EC101F08FC102F090C103F065EF14
:1032B00019F083C187F182C186F181C185F180C196
:1032C00084F10101886B00013BD6120035C174F115
:1032D00001017B6B7451010A00010CE0030A6AE0F2
:1032E000010AD8B4A9D0070AD8B4E9D0010AD8B4E1
:1032F00028D16AD1010131C134F130C135F133C176
:1033000036F132C137F178C183F177C182F176C1EC
:1033100081F175C180F10001CCDF03C097F102C0DB
:1033200096F101C095F100C094F1ECDD01C038F1D7
:1033300078C183F177C182F176C181F175C180F1E5
:10334000B8DFEACF81F1E9CF80F1D88278C1D1F13D
:1033500077C1D0F176C1CFF175C1CEF103C0D5F1FF
:1033600002C0D4F101C0D3F100C0D2F148EC10F09A
:1033700081C1EAFF80C1E9FF0101D66BD56B7A0EEE
:10338000D46F880ED36F03C0DAF102C0D9F101C047
:10339000D8F100C0D7F100011DEC0FF003C097F188
:1033A00002C096F101C095F100C094F1ABDD01C0FF
:1033B00039F110D101017B6B7C6B7C511F083AE322
:1033C0007B517B2B036A340F016E010E032203C075
:1033D00081F1D8907C35036A300FE96E000E03202E
:1033E000EA6EECCF83F1ED52EFCF82F181C1EAFFBB
:1033F00001C0E9FF83C1EFFF7B517B2B036A340FD0
:10340000016E010E032203C081F1D8907C35036A5E
:10341000300FE96E000E0320EA6EECCF83F1ED521F
:10342000EFCF82F181C1EAFF01C0E9FF82C1EFFF66
:103430007C2BC3D70001CED001017B6B200E7D6FAA
:103440007D513F083AE37B517B2B036A340F016EB9
:10345000010E032203C081F1D8907D35036A300F3D
:10346000E96E000E0320EA6EECCF83F1ED52EFCF50
:1034700082F181C1EAFF01C0E9FF83C1EFFF7B5107
:103480007B2B036A340F016E010E032203C081F10E
:10349000D8907D35036A300FE96E000E0320EA6E86
:1034A000ECCF83F1ED52EFCF82F181C1EAFF01C091
:1034B000E9FF82C1EFFF7D2BC3D700018BD0010153
:1034C0007B6B7E6B7E511F083AE37B517B2B036A3B
:1034D000340F016E010E032203C081F1D8907E35B6
:1034E000036AB00FE96E000E0320EA6EECCF83F1A1
:1034F000ED52EFCF82F181C1EAFF01C0E9FF83C144
:10350000EFFF7B517B2B036A340F016E010E032208
:1035100003C081F1D8907E35036AB00FE96E000ECA
:103520000320EA6EECCF83F1ED52EFCF82F181C13F
:10353000EAFF01C0E9FF82C1EFFF7E2BC3D7000184
:1035400049D001017B6B200E7F6F7F513F083AE32A
:103550007B517B2B036A340F016E010E032203C0E3
:1035600081F1D8907F35036AB00FE96E000E032019
:10357000EA6EECCF83F1ED52EFCF82F181C1EAFF29
:1035800001C0E9FF83C1EFFF7B517B2B036A340F3E
:10359000016E010E032203C081F1D8907F35036ACA
:1035A000B00FE96E000E0320EA6EECCF83F1ED520E
:1035B000EFCF82F181C1EAFF01C0E9FF82C1EFFFD5
:1035C0007F2BC3D7000106D0020EF66E100EF76EE9
:1035D0008CEC09F092EF1BF001017451010A00011B
:1035E00009E0030A0EE0010A13E0070A18E0010AE5
:1035F0001DE023D01C0EF66E100EF76E8CEC09F059
:1036000022D0300EF66E100EF76E8CEC09F01BD047
:10361000540EF66E100EF76E8CEC09F014D0780E86
:10362000F66E100EF76E8CEC09F00DD09C0EF66E57
:10363000100EF76E8CEC09F006D0C00EF66E100E70
:10364000F76E8CEC09F0A1EF1BF0010E0101345D67
:10365000FA0FD8B079D0060F0001A7EF1BF0010ECA
:1036600001017B6F7D6F340E7C6F7F6B400E7E6F30
:10367000640E806F0001CCEC0BF0D9EC09F0010175
:1036800063D0010E01017B6F7D6F340E7C6F7F6B09
:10369000400E7E6F640E806F0001CCEC0BF0C0EC2E
:1036A0000DF016EC13F001014FD0010E01017B6FFC
:1036B0007D6F340E7C6F7F6B400E7E6F640E806F6B
:1036C0000001CCEC0BF0C0EC0DF0740EF66E0F0E9A
:1036D000F76E8CEC09F0010137D026EF15F0010EE2
:1036E00001017B6F7D6F340E7C6F7F6B400E7E6FB0
:1036F000640E806F0001CCEC0BF0010125D0010EAF
:1037000001017B6F7D6F340E7C6F7F6B400E7E6F8F
:10371000640E806F0001CCEC0BF0E7EC15F00101BA
:1037200013D0D4D5010E01017B6F7D6F340E7C6FF9
:103730007F6B400E7E6F640E806F0001CCEC0BF04F
:103740004BD7010101D0010100013CEF1CF0E8243E
:10375000F76AF736690FF66E370EF7220A00F55052
:10376000FA6E0800F550F96E5E368236FE36DA36AD
:10377000AA362237F86AD09E078EF90ECB6E060E57
:10378000CA6E94948B947D0EBE6E0C0EBD6E0101BC
:10379000316B306B336B326B746B786B776B766B32
:1037A000756B7A6B796BC150C00B0F09C16E070E38
:1037B000B46E0AD002001A000003002400040CFFBB
:1037C0004030000180000000000EF86E370EF76EEA
:1037D000B40EF66E0900F550006E000A13E0090001
:1037E000F550016EE8BE05D03F0BEA6E0900F5CF3B
:1037F000E9FF01BC090001AC0900F5CFEEFF004E66
:10380000E9D7F9D7F86A0001AFEF08F012EF09F035
:10381000620EF66E0F0EF76E8CEC09F09CEF09F05D
:10382000D9EC09F0040E01017B6FFA0EC86F00019C
:10383000B6EC08F001017B2FF8D70001D9EC09F0B4
:10384000E9EF09F0015219E0010E01018C6F00014E
:10385000EDEC09F0015210E0010E01017B6F7D6F6C
:10386000340E7C6F7F6B400E7E6F816B640E806FB9
:103870000001C9EF0AF0E9D60AD0938881A805D0E3
:10388000C0EC0DF016EC13F002D0E7EC15F0D8D731
:02389000030033
:020000040030CA
:0E00000024CE3E1E008781000FC00FE00F408F
:00000001FF
;PIC18F2455
;CRC=7B0E  CREATED="09-Nov-23 14:11"
