:10000000F9EF09F068961200046ED8CF05F0E0CF42
:1000100006F00001E9CF0CF0EACF07F0E1CF08F0DD
:10002000E2CF09F0D9CF0AF0DACF0BF0F3CF12F01C
:10003000F4CF13F0FACF14F0F5CF15F0F6CF16F099
:10004000F7CF17F000C00EF001C00FF002C010F0A3
:1000500003C011F0A0AA30EF00F0A1BAB1EF06F092
:100060000EC000F00FC001F010C002F011C003F08C
:100070000CC0E9FF07C0EAFF078E08C0E1FF09C016
:10008000E2FF0AC0D9FF0BC0DAFF12C0F3FF13C0B2
:10009000F4FF14C0FAFF15C0F5FF16C0F6FF17C035
:1000A000F7FF045006C0E0FF05C0D8FF1000F76A54
:1000B000BE0FF66E000EF7220900F5501200000385
:1000C000FFFFFFFFFFFFFFFFFFFFFFFFFFFFF76ADD
:1000D000DE0FF66E000EF7220900F5501200400008
:1000E00040000000000000000000000000000000D0
:1000F0000000000000000000000000000000F76A9F
:100100000E0FF66E010EF7220900F55012000600E0
:10011000FF0901A101190129081580257F7508959E
:1001200040810219012908750895409140C0F76A7D
:100130003E0FF66E010EF7220900F5501200000086
:10014000F76A500FF66E010EF7220900F550120003
:100150002000F76A620FF66E010EF7220900F550D3
:10016000120009022900010100C032090400000246
:100170000300000009210001000122200007058181
:100180000340000A0705010340000A00F76A9C0FBC
:10019000F66E010EF7220900F55012000100F76A11
:1001A000AE0FF66E010EF7220900F5501200120094
:1001B000F76AC00FF66E010EF7220900F550120023
:1001C000120110010000004061040400000101025E
:1001D0000001F76AE20FF66E010EF7220900F550F2
:1001E000120004030004080342004D0045001403FC
:1001F00042004D0045002D0034003300390030002E
:1002000020006D92699468A402D06894FCD7689825
:10021000BDEF06F0400E0401016F040E0001936F64
:10022000100E93C003F4E8CF02F4880E0401006FAF
:10023000046B040E076F500E066F0001120070A0D1
:1002400002D0E8DF7090689AC4EF06F06A6A68929C
:10025000C9EF06F09F919EBF9F819E9F9E511008FF
:1002600003E2000E016E16D09FA10BD0036A9E51CF
:100270001EDFFF0802E1000E01D0010E016E0AD060
:1002800009D0036A9E5113DFFF0802E1000E01D07E
:10029000010E016E12009E51A003F3CF01F0F4CFC6
:1002A00000F0A103F35000269F51A003F35000205B
:1002B000026E1200036A9D51700FE96E0F0E03204B
:1002C000EA6EEF6A9DC09EF0C5DF015222E09F6B8F
:1002D0009DC09EF0A16B080EA06FDDDF01C0E9FF9D
:1002E000040E0224EA6EEF6A9F6B9DC09EF0A16B24
:1002F000080EA06FD0DF02C09FF001C09EF0040E78
:100300009E27000E9F239EC0E9FF040E9F25EA6EE4
:10031000EF6A1200010E9C6F9C510F0805E39CC010
:100320009DF0C8DF9C2BF8D71200286A276A926BD1
:1003300092530AE1036A9251290FE96E000E0320DD
:10034000EA6EEF6A922BF4D71B6A010E1C6E1A6AD2
:1003500012006B6A696A6A6A686A6E6A706ADADFD2
:10036000E4DF160E706E68A602D04CDEFCD79F0E3E
:100370006B6E3D0E696E6D984DDF030E226ECEEFF3
:1003800006F0698469986D82D3EF06F0689CD8EF17
:1003900006F098C023F0120023681200966B2750D5
:1003A000281032E096513F082FE31D50FC0F1AE24F
:1003B000040F0FEF02F026C003F02550CADE976F3E
:1003C00011D026C003F025509ADE976F0BD026C0BF
:1003D00003F02550FEDE976F05D026C003F02550B0
:1003E000E7DE976F252AD8B4262A2750D8B42806E6
:1003F00027069651962B500FE96E040EEA6ED8B080
:10040000EA2A97C0EFFFCBD72750281004E1965176
:10041000400801E01A6A96C098F0BBDF1200E82499
:10042000F76AF736390FF66E040EF7220A00F55018
:10043000FA6E0800F550F96EB603C203CE03DA0374
:10044000956B266A256A1D6A04011351010A000191
:1004500009E0030A0DE0010A0FE0220A25E0030A81
:100460003DE05ED0286A120E276E030E1D6E5AD034
:10047000286A290E276E56D0020E1D6E956B040158
:1004800012510001955D09E226C003F02550A1DE5E
:100490002526000E2622952BF2D726C003F02550E4
:1004A00098DE276E286A3ED0D89004011235036A80
:1004B000000175DE0900F5CF03F0256E03C026F0BC
:1004C000253C02D0265208E026C003F0255041DE2C
:1004D000276E286A27D002D05FDF33D0D89004017E
:1004E0001435036A000123DE0900F5CF03F0256E01
:1004F00003C026F0253C02D0265210E0010E1D6EEE
:10050000D89004011435036A00011ADE0900F5CF02
:1005100003F0276E03C028F005D002D03DDF11D0D4
:100520003BDF0FD00401175308E1285203E12750A5
:10053000165D03E2286A16C427F0010E1A6E000148
:100540002DDF1200945304E1040E226EE3DECBD0C3
:10055000050E226E040E976F900E966F010E956F2A
:1005600095510F08D8A0BFD095C09DF0A3DE986B21
:10057000036A95519CDDFF085BE0040E986FD890EC
:100580009535036AA4DD0900F5CF03F0996F03C028
:100590009AF09F6B95C09EF0A16B080EA06F7BDE5A
:1005A00001C09CF0010E0124016E000E0220036EBA
:1005B00001C0E9FF040E0324EA6E99C0EFFF9F6BB0
:1005C00095C09EF0A16B080EA06F65DE01C09CF087
:1005D000020E0124016E000E0220036E01C0E9FF2D
:1005E000040E0324EA6E97C0ECFFED5296C0EFFFB5
:1005F000D8909535036A6BDD0900F5CF03F0962797
:1006000003509723880E9B6F9AA101D09B819AA3D8
:1006100001D09B839F6B95C09EF0A16B080EA06FCD
:100620003ADE01C0E9FF040E0224EA6E9BC0EFFF30
:10063000036A95513CDDFF0840E098839F6B95C0AD
:100640009EF0A16B080EA06F26DE02C09DF001C0D7
:100650009CF0040E9C27000E9D23020E9C25016E2B
:10066000000E9D21036E01C0E9FF040E0324EA6E13
:1006700097C0ECFFED5296C0EFFFD8909535036A16
:1006800026DD0900F5CF03F09627035097239F6BD3
:1006900095C09EF0A16B080EA06FFDDD02C09DF01D
:1006A00001C09CF0040E9C27000E9D239CC0E9FF16
:1006B000040E9D25EA6E400EEF6E9851060802E189
:1006C0000E0E986F036A9551F2DC010801E09889DB
:1006D000036A9551700FE96E0F0E0320EA6E98C001
:1006E000EFFF952B3DD7C2EF03F004011151000A33
:1006F00000010DE0010A14E0020A1FE0060A29E0E9
:10070000030A2EE00E0A2EE0010A32E040D01CC09F
:1007100050F40401516B020E0001986F3ADE38D09C
:100720000401122D07D0010E1C160001986B31DE5A
:1007300003D00401000130DE2BD00401122D06D0BD
:100740001C820001986B25DE03D00401000124DE29
:100750001FD0020E1A6E12C424F0986B1ADE18D045
:100760006FDE16D01BC050F4010E986F12DE10D051
:1007700004011251010809E312C41BF012C494F0E1
:100780000001E0D6986B05DE0401000101D004DE13
:10079000F9EF04F01BC094F004011151000A0001AC
:1007A00007E00A0A0DE0010A28E00D0A38E039D016
:1007B0000401506B516B020E0001986FEADD32D0DC
:1007C000945319E0010E945D036AE0DC016E0401AC
:1007D000145DD8A002D000010ED0036A1451290F75
:1007E000E96E000E0320EA6EEFCF50F4010E000117
:1007F000986FCFDD01D0D0DD15D094530EE0036AA1
:1008000004011451290FE96E000E0320EA6E12C490
:10081000EFFF0001986BBDDD01D0BEDD03D010DE1F
:1008200001D0BADDF9EF04F0959194BF9581949FC2
:1008300095A117D09F6B94C09EF0A16B080EA06F7E
:100840002ADD02C097F001C096F0040E9627000E34
:10085000972396C0E9FF040E9725EA6E880EEF6E87
:100860000DD09F6B94C09EF0A16B080EA06F13DD9E
:1008700001C0E9FF040E0224EA6EEF6A036A945194
:10088000700F016E0F0E032201C0E9FF03C0EAFFE3
:10089000EF90BFEF04F0959194BF9581949F95A13F
:1008A00017D09F6B94C09EF0A16B080EA06FF3DC75
:1008B00002C097F001C096F0040E9627000E972311
:1008C00096C0E9FF040E9725EA6E840EEF6E0ED0F7
:1008D0009F6B94C09EF0A16B080EA06FDCDC01C082
:1008E000E9FF040E0224EA6E840EEF6EC5EF04F0F9
:1008F000959194BF9581949F95A117D09F6B94C0BB
:100900009EF0A16B080EA06FC6DC02C098F001C07B
:1009100097F0040E9727000E982397C0E9FF040E66
:100920009825EA6EEFCF96F00ED09F6B94C09EF0A4
:10093000A16B080EA06FAFDC01C0E9FF040E02241A
:10094000EA6EEFCF96F096AF02D096B502D0000EC9
:1009500001D0010E016ECFEF04F014C49EF07ADCDA
:10096000015228E004011151010A000105E0020AC8
:1009700009E0030A0DE01DD014C494F055D7986B1C
:1009800008DD18D014C494F086D7986B02DD12D01D
:100990000401506B516B14C494F00001A9D70152AB
:1009A00004E0010E0401506F0001020E986FF1DCAB
:1009B00001D0F2DCF9EF04F0040111510001ECDC8C
:1009C000F9EF04F01A6A040110517F0B000A0001CC
:1009D00007E0010A07E0030A07E0230A07E008D05E
:1009E00084D607D0D7D605D0B8D703D0E5D701D065
:1009F000D3DC67EF06F09F6B94C09EF0A16B080EEE
:100A0000A06F49DC01C0E9FF040E0224EA6EEFCFBB
:100A100096F09551020806E196AD02D0956B02D092
:100A2000010E956F9551030819E1840E966F9F6B27
:100A300094C09EF0A16B080EA06F2DDC02C09AF04E
:100A400001C099F0040E9927000E9A2399C0E9FF7E
:100A5000040E9A25EA6E840EEF6E07D0952D03D012
:100A6000C80E966F02D0880E966FD8909435036AA0
:100A700067EC00F00900F5CF03F0976F03C098F022
:100A80009F6B94C09EF0A16B080EA06F04DC01C0A8
:100A900099F0010E0124016E000E0220036E01C0C8
:100AA000E9FF040E0324EA6E97C0EFFF98A101D07E
:100AB000968198A301D096839F6B94C09EF0A16B02
:100AC000080EA06F4BEC01F001C0E9FF040E0224F8
:100AD000EA6E96C0EFFF1200036A9951700FE96E3B
:100AE0000F0E0320EA6EEF5219E09F6B99C09EF043
:100AF000A16B080EA06F4BEC01F002C09BF001C08F
:100B00009AF0040E9A27000E9B239AC0E9FF040E68
:100B10009B25EA6EEFCF9CF09CAF02D0000E01D077
:100B2000010E016E120094C099F0D6DF0152D8B4C4
:100B30008FD09F6B94C09EF0A16B080EA06F4BEC02
:100B400001F002C09AF001C099F0040E9927000E3E
:100B50009A23010E9925016E000E9A21036E01C0A1
:100B6000E9FF040E0324EA6E95C0EFFF97510208D7
:100B70001EE19F6B94C09EF0A16B080EA06F4BEC22
:100B800001F002C09AF001C099F0040E9927000EFE
:100B90009A2399C0E9FF040E9A25EA6EEFCF98F0E8
:100BA00098AD02D0976B02D0010E976F18D0975175
:100BB000040815E19F6B94C09EF0A16B080EA06F16
:100BC0004BEC01F001C0E9FF040E0224EA6EEFCF06
:100BD00098F098AD03D0010E976F01D0976B972DC9
:100BE00003D0480E986F02D0080E986F9F6B94C088
:100BF0009EF0A16B080EA06F4BEC01F002C09AF0C2
:100C000001C099F0040E9927000E9A2399C0E9FFBC
:100C1000040E9A25EA6E98C0EFFF9F6B94C09EF079
:100C2000A16B080EA06F4BEC01F002C09AF001C05E
:100C300099F0040E9927000E9A2399C0E9FF040E3B
:100C40009A25EA6EEF508009EF6E010E016E02D018
:100C5000000E016E1200945300E1120095C06EFF69
:100C6000955303E0040E226E02D0020E226E3EEF78
:100C700006F01B6A1A6A24C095F0F0D74BEF06F015
:100C8000945309E11A2C03D0CEEC01F004D01A5091
:100C90000208D8B4EED712002130926F923392330B
:100CA0001F0E9217215241E1040100513C0B00013B
:100CB000936F430E040100170001935134081EE1A5
:100CC00004010451800B01E0046B00017BD66D9898
:100CD000233C05D0946B030E956F8DDE0ED0946B84
:100CE000020E956F88DE2350FE0807E0946B966B2A
:100CF00023C095F0040E976F16DF16D093510408A9
:100D000013E1946BA8DF946B020E956F74DE235091
:100D1000FE080AE0233C01D007D0946B966B23C0F9
:100D200095F0010E976FFFDE1AD0215004080EE1F6
:100D30002368946BA5DF233C01D007D0946B966B9E
:100D400023C095F0020E976FEEDE09D021B404D0D7
:100D500092C094F080DF03D092C094F091DFE2EF74
:100D600006F0A19A2252D8B433D06852D8B430D009
:100D700068A403D069B401EF01F06DB229D068AA6C
:100D800003D069BA1FEF01F068A203D069B226EF61
:100D900001F068A003D069B0A9EF01F068A803D002
:100DA00069B8C1EF01F068AC03D069BCC6EF01F0CF
:100DB000916B68A608D069A606D06CCF21F002EC32
:100DC00000F06AD701D004D09151912B0308F1E2D1
:100DD00030EF00F0EA6A7B0EE96EEF500EE00F0E86
:100DE000016E006A002EFED7012EFBD78F0E006E1B
:100DF000002EFED70000EF2EF2D712006D926D6A22
:100E0000696A080E6F6E94503009946E226A196AEE
:100E1000F2BE198EF29E95EC01F019BEF28E12EF21
:100E200007F0ECD73EEF07F0196AF2BE198EF29E7A
:100E300095EC01F019BEF28E6D926D6A6D8C00D04A
:100E400000D000006D9C140E6F6E696A6D86010EF5
:100E5000226E2EEF07F06DB601D0E6D7222C0BD014
:100E60006DBA09D0686A696AA08AC00EF212110EC2
:100E7000696E020E226E3FEF07F0D3D7ECD72250F7
:100E80000208FCE10DEF0AF01B50016E17EF0AF0AB
:100E9000036A7B51700FE96E0F0E0320EA6EEF526A
:100EA0001BE0196AF2BE198EF29E9F6B7BC09EF00A
:100EB000A16B080EA06F4BEC01F019BEF28E02C0C0
:100EC0007DF001C07CF001C0E9FF040E0224EA6E4F
:100ED000EFCF7EF07EAF02D0000E01D0010E016E8A
:100EE0001200196AF2BE198EF29E9F6B80C09EF0AE
:100EF000A16B080EA06F4BEC01F019BEF28E01C081
:100F00008AF0020E0124016E000E0220036E01C061
:100F1000E9FF040E0324EA6EECCF86F0ED52EFCF2A
:100F200085F0196AF2BE198EF29E9F6B80C09EF00A
:100F3000A16B080EA06F4BEC01F019BEF28E01C040
:100F40008AF0010E0124016E000E0220036E01C022
:100F5000E9FF040E0324EA6E896BEFCF88F0196A6B
:100F6000F2BE198EF29E9F6B80C09EF0A16B080EA0
:100F7000A06F4BEC01F019BEF28E01C0E9FF040E28
:100F80000224EA6EEFCF87F087A101D0898187A381
:100F900001D089838951845D08E303E18351885D31
:100FA00004E289C084F088C083F082C0EAFF81C077
:100FB000E9FF86C0E2FF85C0E1FF84C002F083C084
:100FC00001F0015202E0022A02D0025206E0E6CF0E
:100FD000EEFF012EFCD7022EFAD783C001F084C0A9
:100FE00002F0FEEF07F07BC080F07DC082F07CC095
:100FF00081F07FC084F07EC083F073D702C07FF0A1
:1010000001C07EF0196AF2BE198EF29E7BC094F088
:10101000020E956FF0DC19BEF28E7EC001F07FC02B
:1010200002F046EF08F0726B716BD8906A35036A74
:1010300067EC00F00900F5CF03F0776F03C078F09C
:1010400078516E5D09E303E16D51775D05E278C08B
:101050007AF077C079F004D06EC07AF06DC079F084
:10106000746B736B78C076F077C075F06AC07BF0F4
:101070000FDF01521DE06AC07BF06CC07DF06BC0D9
:101080007CF07AC07FF079C07EF0ADD702C076F0F8
:1010900001C075F075516B2776516C2375516D5FEA
:1010A00076516E5B75517127765172230DD006D043
:1010B000732BD8B4742B010E7B6F8CDE6F51735D74
:1010C000D1E17051745DCEE17751755D0FE17851DA
:1010D000765D0CE16F51701106E06F51735D03E1B5
:1010E0007051745D03E06D516E11AAE171C001F0A1
:1010F00072C002F02AEF0AF0886B896B010E8A6FCA
:10110000DA6AD96A8D6B800E8C6FEA6A840EE96E9A
:101110008DC0E2FF8CC0E1FF8AC08BF0D890E55013
:10112000EE02F3508823F45089238B2FF7D788C021
:10113000DEFF89C088F0896BD8B0892B8C2BD8B49E
:101140008D2B8A2B8A510508E0E11200196AF2BE44
:10115000198EF29E7EC099F0BFDC19BEF28E01524C
:101160004FE0196AF2BE198EF29E9F6B7EC09EF010
:10117000A16B080EA06F4BEC01F019BEF28E02C0FD
:1011800087F001C086F0040E8627000E8723020E2A
:101190008625016E000E8721036E01C0E9FF040E53
:1011A0000324EA6EECCF85F0ED52EFCF84F085C0DA
:1011B000EAFF84C0E9FF80C0E2FF7FC0E1FF82C098
:1011C00002F081C001F0015202E0022A02D0025274
:1011D00006E0E6CFEEFF012EFCD7022EFAD7196A01
:1011E000F2BE198EF29E7EC094F082C096F081C04D
:1011F00095F083C097F097DC19BEF28E015002D0B3
:10120000000E016E1200726B716BD8906B35036A21
:1012100067EC00F00900F5CF03F0766F03C077F0BC
:1012200072516F5DD8A065D003E16E51715D61E2CE
:10123000836B826B816B70C080F0876B866B030E53
:10124000856FE80E846F58DF03C07BF002C07AF030
:1012500001C079F000C078F071516E5D7C6F725101
:101260006F597D6F77517D5D09E303E17C51765DB8
:1012700005E277C075F076C074F006D071516E5DEE
:10128000746F72516F59756F71516C257C6F72510B
:101290006D217D6F6BC07EF0806F7CC07FF075C06C
:1012A00082F074C081F0020E836F50DF739101B041
:1012B000738173B10DD0030E006E002EFED700D0E7
:1012C000FF0E7827D8A07927D8A07A27D8A07B2727
:1012D00073B10AD07053D8E07853D6E17953D4E192
:1012E0007A53D2E17B53D0E1765171277751722343
:1012F00097D76E51715D3EE16F51725D3BE1836B3B
:10130000826B816B70C080F0876B866B030E856F7C
:10131000E80E846FF1DE03C07BF002C07AF001C0FA
:1013200079F000C078F06BC07EF0806B7F6B826BD1
:10133000816B020E836F0ADF739101B0738173B109
:101340000DD0030E006E002EFED700D0FF0E7827C2
:10135000D8A07927D8A07A27D8A07B2773B10AD044
:101360007053E1E07853DFE17953DDE17A53DBE15B
:101370007B53D9E1000E73B1010E016E12002A50A9
:10138000010A03E0030A18E032D0010E6B6F6D6BA7
:101390002A0E6C6F6F6B400E6E6F640E706F33DFD2
:1013A00092908980020E6B6FFA0E7B6F13DD6B2FAC
:1013B000FBD7929089901BD06A6B6A513F080BE370
:1013C000036A6A512A0FE96E000E0320EA6E6AC0B2
:1013D000EFFF6A2BF2D7010E6B6F6D6B2A0E6C6FED
:1013E0006F6B400E6E6F640E706F0DDF00D02BEFD1
:1013F0000AF0F86AD09E078EC150C00B0F09C16E6B
:10140000070EB46E1E6A040E1F6E0C0E206E0A0EBE
:101410007B6FE0DC9290898030D5040E6A6FFA0E03
:101420007B6FD8DC6A2FFBD7929089902DD5015223
:1014300012E0010E7B6F2CDD01520DE0010E6A6F90
:101440006C6B2A0E6B6F6E6B400E6D6F706B640E63
:0A1450006F6FE9D594D7EAD70300C7
:020000040030CA
:0E00000024CE3E1E008781000FC00FE00F408F
:00000001FF
;PIC18F2455
;CRC=DCBB  CREATED="26-Oct-23 15:43"
