:100000000BEF0BF068961200046ED8CF05F0E0CF2E
:1000100006F00001E9CF0CF0EACF07F0E1CF08F0DD
:10002000E2CF09F0D9CF0AF0DACF0BF0F3CF12F01C
:10003000F4CF13F0FACF14F0F5CF15F0F6CF16F099
:10004000F7CF17F000C00EF001C00FF002C010F0A3
:1000500003C011F0A0AA30EF00F0A1BAB1EF06F092
:100060000EC000F00FC001F010C002F011C003F08C
:100070000CC0E9FF07C0EAFF078E08C0E1FF09C016
:10008000E2FF0AC0D9FF0BC0DAFF12C0F3FF13C0B2
:10009000F4FF14C0FAFF15C0F5FF16C0F6FF17C035
:1000A000F7FF045006C0E0FF05C0D8FF1000F76A54
:1000B000BE0FF66E000EF7220900F5501200000385
:1000C000FFFFFFFFFFFFFFFFFFFFFFFFFFFFF76ADD
:1000D000DE0FF66E000EF7220900F5501200400008
:1000E00040000000000000000000000000000000D0
:1000F0000000000000000000000000000000F76A9F
:100100000E0FF66E010EF7220900F55012000600E0
:10011000FF0901A101190129081580257F7508959E
:1001200040810219012908750895409140C0F76A7D
:100130003E0FF66E010EF7220900F5501200000086
:10014000F76A500FF66E010EF7220900F550120003
:100150002000F76A620FF66E010EF7220900F550D3
:10016000120009022900010100C032090400000246
:100170000300000009210001000122200007058181
:100180000340000A0705010340000A00F76A9C0FBC
:10019000F66E010EF7220900F55012000100F76A11
:1001A000AE0FF66E010EF7220900F5501200120094
:1001B000F76AC00FF66E010EF7220900F550120023
:1001C000120110010000004061040400000101025E
:1001D0000001F76AE20FF66E010EF7220900F550F2
:1001E000120004030004080342004D0045001403FC
:1001F0004800490044005500540049004C003000BC
:1002000031006D92699468A402D06894FCD7689814
:10021000BDEF06F0400E0401016F040E0001966F61
:10022000100E96C003F4E8CF02F4880E0401006FAC
:10023000046B040E076F500E066F0001120070A0D1
:1002400002D0E8DF7090689AC4EF06F06A6A68929C
:10025000C9EF06F0A291A1BFA281A19FA1511008F0
:1002600003E2000E016E16D0A2A10BD0036AA151C9
:100270001EDFFF0802E1000E01D0010E016E0AD060
:1002800009D0036AA15113DFFF0802E1000E01D07B
:10029000010E016E1200A151A303F3CF01F0F4CFC0
:1002A00000F0A403F3500026A251A303F350002052
:1002B000026E1200036AA051700FE96E0F0E032048
:1002C000EA6EEF6AA0C0A1F0C5DF015222E0A26B86
:1002D000A0C0A1F0A46B080EA36FDDDF01C0E9FF91
:1002E000040E0224EA6EEF6AA26BA0C0A1F0A46B18
:1002F000080EA36FD0DF02C0A2F001C0A1F0040E6F
:10030000A127000EA223A1C0E9FF040EA225EA6ED8
:10031000EF6A1200010E9F6F9F510F0805E39FC007
:10032000A0F0C8DF9F2BF8D71200286A276A956BC8
:1003300095530AE1036A9551290FE96E000E0320D7
:10034000EA6EEF6A952BF4D71B6A010E1C6E1A6ACF
:1003500012006B6A696A6A6A686A6E6A706ADADFD2
:10036000E4DF160E706E68A602D04CDEFCD79F0E3E
:100370006B6E3D0E696E6D984DDF030E226ECEEFF3
:1003800006F0698469986D82D3EF06F0689CD8EF17
:1003900006F09BC023F0120023681200996B2750CF
:1003A000281032E099513F082FE31D50FC0F1AE24C
:1003B000040F0FEF02F026C003F02550CADE9A6F3B
:1003C00011D026C003F025509ADE9A6F0BD026C0BC
:1003D00003F02550FEDE9A6F05D026C003F02550AD
:1003E000E7DE9A6F252AD8B4262A2750D8B42806E3
:1003F00027069951992B500FE96E040EEA6ED8B07A
:10040000EA2A9AC0EFFFCBD72750281004E1995170
:10041000400801E01A6A99C09BF0BBDF1200E82493
:10042000F76AF736390FF66E040EF7220A00F55018
:10043000FA6E0800F550F96EB603C203CE03DA0374
:10044000986B266A256A1D6A04011351010A00018E
:1004500009E0030A0DE0010A0FE0220A25E0030A81
:100460003DE05ED0286A120E276E030E1D6E5AD034
:10047000286A290E276E56D0020E1D6E986B040155
:1004800012510001985D09E226C003F02550A1DE5B
:100490002526000E2622982BF2D726C003F02550E1
:1004A00098DE276E286A3ED0D89004011235036A80
:1004B000000175DE0900F5CF03F0256E03C026F0BC
:1004C000253C02D0265208E026C003F0255041DE2C
:1004D000276E286A27D002D05FDF33D0D89004017E
:1004E0001435036A000123DE0900F5CF03F0256E01
:1004F00003C026F0253C02D0265210E0010E1D6EEE
:10050000D89004011435036A00011ADE0900F5CF02
:1005100003F0276E03C028F005D002D03DDF11D0D4
:100520003BDF0FD00401175308E1285203E12750A5
:10053000165D03E2286A16C427F0010E1A6E000148
:100540002DDF1200975304E1040E226EE3DECBD0C0
:10055000050E226E040E9A6F900E996F010E986F21
:1005600098510F08D8A0BFD098C0A0F0A3DE9B6B15
:10057000036A98519CDDFF085BE0040E9B6FD890E6
:100580009835036AA4DD0900F5CF03F09C6F03C022
:100590009DF0A26B98C0A1F0A46B080EA36F7BDE48
:1005A00001C09FF0010E0124016E000E0220036EB7
:1005B00001C0E9FF040E0324EA6E9CC0EFFFA26BAA
:1005C00098C0A1F0A46B080EA36F65DE01C09FF078
:1005D000020E0124016E000E0220036E01C0E9FF2D
:1005E000040E0324EA6E9AC0ECFFED5299C0EFFFAF
:1005F000D8909835036A6BDD0900F5CF03F0992791
:1006000003509A23880E9E6F9DA101D09E819DA3C9
:1006100001D09E83A26B98C0A1F0A46B080EA36FBB
:100620003ADE01C0E9FF040E0224EA6E9EC0EFFF2D
:10063000036A98513CDDFF0840E09B83A26B98C0A1
:10064000A1F0A46B080EA36F26DE02C0A0F001C0CB
:100650009FF0040E9F27000EA023020E9F25016E1F
:10066000000EA021036E01C0E9FF040E0324EA6E10
:100670009AC0ECFFED5299C0EFFFD8909835036A0D
:1006800026DD0900F5CF03F0992703509A23A26BCA
:1006900098C0A1F0A46B080EA36FFDDD02C0A0F00E
:1006A00001C09FF0040E9F27000EA0239FC0E9FF0A
:1006B000040EA025EA6E400EEF6E9B51060802E183
:1006C0000E0E9B6F036A9851F2DC010801E09B89D2
:1006D000036A9851700FE96E0F0E0320EA6E9BC0FB
:1006E000EFFF982B3DD7C2EF03F004011151000A30
:1006F00000010DE0010A14E0020A1FE0060A29E0E9
:10070000030A2EE00E0A2EE0010A32E040D01CC09F
:1007100050F40401516B020E00019B6F3ADE38D099
:100720000401122D07D0010E1C1600019B6B31DE57
:1007300003D00401000130DE2BD00401122D06D0BD
:100740001C8200019B6B25DE03D00401000124DE26
:100750001FD0020E1A6E12C424F09B6B1ADE18D042
:100760006FDE16D01BC050F4010E9B6F12DE10D04E
:1007700004011251010809E312C41BF012C497F0DE
:100780000001E0D69B6B05DE0401000101D004DE10
:10079000F9EF04F01BC097F004011151000A0001A9
:1007A00007E00A0A0DE0010A28E00D0A38E039D016
:1007B0000401506B516B020E00019B6FEADD32D0D9
:1007C000975319E0010E975D036AE0DC016E0401A6
:1007D000145DD8A002D000010ED0036A1451290F75
:1007E000E96E000E0320EA6EEFCF50F4010E000117
:1007F0009B6FCFDD01D0D0DD15D097530EE0036A9B
:1008000004011451290FE96E000E0320EA6E12C490
:10081000EFFF00019B6BBDDD01D0BEDD03D010DE1C
:1008200001D0BADDF9EF04F0989197BF9881979FB6
:1008300098A117D0A26B97C0A1F0A46B080EA36F6C
:100840002ADD02C09AF001C099F0040E9927000E2B
:100850009A2399C0E9FF040E9A25EA6E880EEF6E7E
:100860000DD0A26B97C0A1F0A46B080EA36F13DD8F
:1008700001C0E9FF040E0224EA6EEF6A036A975191
:10088000700F016E0F0E032201C0E9FF03C0EAFFE3
:10089000EF90BFEF04F0989197BF9881979F98A130
:1008A00017D0A26B97C0A1F0A46B080EA36FF3DC66
:1008B00002C09AF001C099F0040E9927000E9A2305
:1008C00099C0E9FF040E9A25EA6E840EEF6E0ED0F1
:1008D000A26B97C0A1F0A46B080EA36FDCDC01C073
:1008E000E9FF040E0224EA6E840EEF6EC5EF04F0F9
:1008F000989197BF9881979F98A117D0A26B97C0A6
:10090000A1F0A46B080EA36FC6DC02C09BF001C06F
:100910009AF0040E9A27000E9B239AC0E9FF040E5A
:100920009B25EA6EEFCF99F00ED0A26B97C0A1F095
:10093000A46B080EA36FAFDC01C0E9FF040E022414
:10094000EA6EEFCF99F099AF02D099B502D0000EC0
:1009500001D0010E016ECFEF04F014C4A1F07ADCD7
:10096000015228E004011151010A000105E0020AC8
:1009700009E0030A0DE01DD014C497F055D79B6B16
:1009800008DD18D014C497F086D79B6B02DD12D017
:100990000401506B516B14C497F00001A9D70152A8
:1009A00004E0010E0401506F0001020E9B6FF1DCA8
:1009B00001D0F2DCF9EF04F0040111510001ECDC8C
:1009C000F9EF04F01A6A040110517F0B000A0001CC
:1009D00007E0010A07E0030A07E0230A07E008D05E
:1009E00084D607D0D7D605D0B8D703D0E5D701D065
:1009F000D3DC67EF06F0A26B97C0A1F0A46B080EE2
:100A0000A36F49DC01C0E9FF040E0224EA6EEFCFB8
:100A100099F09851020806E199AD02D0986B02D086
:100A2000010E986F9851030819E1840E996FA26B1B
:100A300097C0A1F0A46B080EA36F2DDC02C09DF03F
:100A400001C09CF0040E9C27000E9D239CC0E9FF72
:100A5000040E9D25EA6E840EEF6E07D0982D03D00C
:100A6000C80E996F02D0880E996FD8909735036A97
:100A700067EC00F00900F5CF03F09A6F03C09BF01C
:100A8000A26B97C0A1F0A46B080EA36F04DC01C099
:100A90009CF0010E0124016E000E0220036E01C0C5
:100AA000E9FF040E0324EA6E9AC0EFFF9BA101D078
:100AB00099819BA301D09983A26B97C0A1F0A46BED
:100AC000080EA36F4BEC01F001C0E9FF040E0224F5
:100AD000EA6E99C0EFFF1200036A9C51700FE96E35
:100AE0000F0E0320EA6EEF5219E0A26B9CC0A1F03A
:100AF000A46B080EA36F4BEC01F002C09EF001C086
:100B00009DF0040E9D27000E9E239DC0E9FF040E5C
:100B10009E25EA6EEFCF9FF09FAF02D0000E01D06E
:100B2000010E016E120097C09CF0D6DF0152D8B4BE
:100B30008FD0A26B97C0A1F0A46B080EA36F4BECF3
:100B400001F002C09DF001C09CF0040E9C27000E35
:100B50009D23010E9C25016E000E9D21036E01C098
:100B6000E9FF040E0324EA6E98C0EFFF9A510208D1
:100B70001EE1A26B97C0A1F0A46B080EA36F4BEC13
:100B800001F002C09DF001C09CF0040E9C27000EF5
:100B90009D239CC0E9FF040E9D25EA6EEFCF9BF0DC
:100BA0009BAD02D09A6B02D0010E9A6F18D09A5169
:100BB000040815E1A26B97C0A1F0A46B080EA36F07
:100BC0004BEC01F001C0E9FF040E0224EA6EEFCF06
:100BD0009BF09BAD03D0010E9A6F01D09A6B9A2DBA
:100BE00003D0480E9B6F02D0080E9B6FA26B97C07C
:100BF000A1F0A46B080EA36F4BEC01F002C09DF0B6
:100C000001C09CF0040E9C27000E9D239CC0E9FFB0
:100C1000040E9D25EA6E9BC0EFFFA26B97C0A1F06A
:100C2000A46B080EA36F4BEC01F002C09DF001C055
:100C30009CF0040E9C27000E9D239CC0E9FF040E2F
:100C40009D25EA6EEF508009EF6E010E016E02D015
:100C5000000E016E1200975300E1120098C06EFF63
:100C6000985303E0040E226E02D0020E226E3EEF75
:100C700006F01B6A1A6A24C098F0F0D74BEF06F012
:100C8000975309E11A2C03D0CEEC01F004D01A508E
:100C90000208D8B4EED712002130956F9533953302
:100CA0001F0E9517215241E1040100513C0B000138
:100CB000966F430E040100170001965134081EE19F
:100CC00004010451800B01E0046B00017BD66D9898
:100CD000233C05D0976B030E986F8DDE0ED0976B7B
:100CE000020E986F88DE2350FE0807E0976B996B21
:100CF00023C098F0040E9A6F16DF16D096510408A0
:100D000013E1976BA8DF976B020E986F74DE235088
:100D1000FE080AE0233C01D007D0976B996B23C0F3
:100D200098F0010E9A6FFFDE1AD0215004080EE1F0
:100D30002368976BA5DF233C01D007D0976B996B95
:100D400023C098F0020E9A6FEEDE09D021B404D0D1
:100D500095C097F080DF03D095C097F091DFE2EF68
:100D600006F0A19A2252D8B433D06852D8B430D009
:100D700068A403D069B401EF01F06DB229D068AA6C
:100D800003D069BA1FEF01F068A203D069B226EF61
:100D900001F068A003D069B0A9EF01F068A803D002
:100DA00069B8C1EF01F068AC03D069BCC6EF01F0CF
:100DB000946B68A608D069A606D06CCF21F002EC2F
:100DC00000F06AD701D004D09451942B0308F1E2CB
:100DD00030EF00F0EA6A7F0EE96EEF500EE00F0E82
:100DE000016E006A002EFED7012EFBD78F0E006E1B
:100DF000002EFED70000EF2EF2D712006D926D6A22
:100E0000696A080E6F6E94503009946E226A196AEE
:100E1000F2BE198EF29E95EC01F019BEF28E12EF21
:100E200007F0ECD73EEF07F0196AF2BE198EF29E7A
:100E300095EC01F019BEF28E6D926D6A6D8C00D04A
:100E400000D000006D9C140E6F6E696A6D86010EF5
:100E5000226E2EEF07F06DB601D0E6D7222C0BD014
:100E60006DBA09D0686A696AA08AC00EF212110EC2
:100E7000696E020E226E3FEF07F0D3D7ECD72250F7
:100E80000208FCE11EEF0BF01B50016E33EF0BF07C
:100E9000036A7F51700FE96E0F0E0320EA6EEF5266
:100EA0001BE0196AF2BE198EF29EA26B7FC0A1F000
:100EB000A46B080EA36F4BEC01F019BEF28E02C0BA
:100EC00081F001C080F001C0E9FF040E0224EA6E47
:100ED000EFCF82F082AF02D0000E01D0010E016E82
:100EE0001200196AF2BE198EF29EA26B84C0A1F0A4
:100EF000A46B080EA36F4BEC01F019BEF28E01C07B
:100F00008EF0020E0124016E000E0220036E01C05D
:100F1000E9FF040E0324EA6EECCF8AF0ED52EFCF26
:100F200089F0196AF2BE198EF29EA26B84C0A1F0FC
:100F3000A46B080EA36F4BEC01F019BEF28E01C03A
:100F40008EF0010E0124016E000E0220036E01C01E
:100F5000E9FF040E0324EA6E8D6BEFCF8CF0196A63
:100F6000F2BE198EF29EA26B84C0A1F0A46B080E93
:100F7000A36F4BEC01F019BEF28E01C0E9FF040E25
:100F80000224EA6EEFCF8BF08BA101D08D818BA371
:100F900001D08D838D51885D08E303E187518C5D1D
:100FA00004E28DC088F08CC087F086C0EAFF85C05F
:100FB000E9FF8AC0E2FF89C0E1FF88C002F087C074
:100FC00001F0015202E0022A02D0025206E0E6CF0E
:100FD000EEFF012EFCD7022EFAD787C001F088C0A1
:100FE00002F0FEEF07F07FC084F081C086F080C081
:100FF00085F083C088F082C087F073D702C083F089
:1010000001C082F0196AF2BE198EF29E7FC097F07D
:10101000020E986FF0DC19BEF28E82C001F083C020
:1010200002F046EF08F0766B756BD8906E35036A68
:1010300067EC00F00900F5CF03F07B6F03C07CF094
:101040007C51725D09E303E171517B5D05E27CC077
:101050007EF07BC07DF004D072C07EF071C07DF068
:10106000786B776B7CC07AF07BC079F06EC07FF0D4
:101070000FDF01521DE06EC07FF070C081F06FC0C5
:1010800080F07EC083F07DC082F0ADD702C07AF0E0
:1010900001C079F079516F277A5170237951715FCE
:1010A0007A51725B795175277A5176230DD006D02B
:1010B000772BD8B4782B010E7F6F8CDE7351775D60
:1010C000D1E17451785DCEE17B51795D0FE17C51C6
:1010D0007A5D0CE17351741106E07351775D03E1A1
:1010E0007451785D03E071517211AAE175C001F08D
:1010F00076C002F046EF0BF08B6B8C6B010E8D6FA0
:10110000DA6AD96A906B830E8F6FEA6A870EE96E8E
:1011100090C0E2FF8FC0E1FF8DC08EF0D890E55007
:10112000EE02F3508B23F4508C238E2FF7D78BC015
:10113000DEFF8CC08BF08C6BD8B08C2B8F2BD8B48F
:10114000902B8D2B8D510508E0E11200196AF2BE3B
:10115000198EF29E81C09CF0BFDC19BEF28E015246
:101160004FE0196AF2BE198EF29EA26B81C0A1F007
:10117000A46B080EA36F4BEC01F019BEF28E02C0F7
:101180008AF001C089F0040E8927000E8A23020E1E
:101190008925016E000E8A21036E01C0E9FF040E4D
:1011A0000324EA6EECCF88F0ED52EFCF87F088C0D1
:1011B000EAFF87C0E9FF83C0E2FF82C0E1FF85C08C
:1011C00002F084C001F0015202E0022A02D0025271
:1011D00006E0E6CFEEFF012EFCD7022EFAD7196A01
:1011E000F2BE198EF29E81C097F085C099F084C03E
:1011F00098F086C09AF097DC19BEF28E015002D0AA
:10120000000E016E1200756B746BD8906E35036A18
:1012100067EC00F00900F5CF03F0796F03C07AF0B6
:101220007551725DD8A065D003E17151745D61E2C2
:10123000866B856B846B73C083F08A6B896B030E3E
:10124000886FE80E876F58DF03C07EF002C07DF024
:1012500001C07CF000C07BF07451715D7F6F7551EF
:101260007259806F7A51805D09E303E17F51795DA6
:1012700005E27AC078F079C077F006D07451715DDC
:10128000776F75517259786F74516F257F6F7551F3
:101290007021806F6EC081F0836F7FC082F078C054
:1012A00085F077C084F0020E866F50DF769101B032
:1012B000768176B10DD0030E006E002EFED700D0E1
:1012C000FF0E7B27D8A07C27D8A07D27D8A07E271B
:1012D00076B10AD07353D8E07B53D6E17C53D4E186
:1012E0007D53D2E17E53D0E1795174277A51752331
:1012F00097D77151745D3EE17251755D3BE1866B2C
:10130000856B846B73C083F08A6B896B030E886F67
:10131000E80E876FF1DE03C07EF002C07DF001C0F1
:101320007CF000C07BF06EC081F0836B826B856BBC
:10133000846B020E866F0ADF769101B0768176B1FA
:101340000DD0030E006E002EFED700D0FF0E7B27BF
:10135000D8A07C27D8A07D27D8A07E2776B10AD038
:101360007353E1E07B53DFE17C53DDE17D53DBE14F
:101370007E53D9E1000E76B1010E016E12006F6B43
:101380006E6B706B7051030809E3C282C2B2FED764
:10139000C4506E27000E6F23702BF4D76F31036E8D
:1013A0006E31026E033202323F0E031602C001F0AC
:1013B0001200010E705F0CE3EA6A700EE96EEF50E6
:1013C00007E0020E006E002EFED700D0EF2EF9D7F8
:1013D000120093908A902A5203E093928A9204D04A
:1013E0002A5202E193928A826E6B2C506E5D14E257
:1013F00093948A94020E6F6FFA0E706FDADF6F2F7C
:10140000FBD793948A84020E6F6FFA0E706FD1DF50
:101410006F2FFBD76E2BE9D709EF0BF093968A96C7
:101420002B5203E093988A9804D02B5202E19398B0
:101430008A886E6B2D506E5D14E2939A8A9A020E22
:101440006F6FFA0E706FB5DF6F2FFBD7939A8A8A92
:10145000020E6F6FFA0E706FACDF6F2FFBD76E2B23
:10146000E9D709EF0BF02E50010A0DE0030A1EE048
:10147000010A3BE0070A5DE0010AD8B47ED0030A06
:10148000D8B4A1D0C6D0010E6E6F706B2E0E6F6FE8
:10149000726B400E716F640E736FB5DE929289822B
:1014A000320E7F6F97DC92928992B3D068DF01C0D1
:1014B0002FF09286306A80B6302A9284316A80B4E6
:1014C000312A928A326A80BA322A9288336A80B884
:1014D000332A010E6E6F706B2E0E6F6F726B400EA3
:1014E000716F640E736F8FDE94D02FC02AF030C0FE
:1014F0002CF045DF01C02FF09286306A80B6302A8A
:101500009284316A80B4312A928A326A80BA322A4D
:101510009288336A80B8332A010E6E6F706B2E0E7C
:101520006F6F726B400E716F640E736F6CDE51D70C
:1015300070D02FC02BF030C02DF021DF01C02FF074
:101540009286306A80B6302A9284316A80B4312A19
:10155000928A326A80BA322A9288336A80B8332AF1
:10156000010E6E6F706B2E0E6F6F726B400E716F8F
:10157000640E736F48DE52D74CD02F2C03D093905B
:101580008A9002D093908A80FADE01C02FF0928672
:10159000306A80B6302A9284316A80B4312A928AC5
:1015A000326A80BA322A9288336A80B8332A010EAE
:1015B0006E6F706B2E0E6F6F726B400E716F640EDC
:1015C000736F21DE26D02F2C03D093968A9602D0FB
:1015D00093968A86D4DE01C02FF09286306A80B658
:1015E000302A9284316A80B4312A928A326A80BA6F
:1015F000322A9288336A80B8332A010E6E6F706B7C
:101600002E0E6F6F726B400E716F640E736FFBDD89
:1016100000D047EF0BF0F86AD09E078EC150C00B88
:101620000F09C16E070EB46E1E6A040E1F6E0C0EFB
:10163000206E0A0E7F6FEAEC06F01FD4000E016EDA
:10164000C250C30B0110C26EC150C00B0E09C16E57
:10165000C050C00B0709C06EC09EC28093908A80A4
:1016600093968A8611D4015212E0010E7F6F10DC2E
:1016700001520DE0010E6E6F706B2E0E6F6F726B6C
:10168000400E716F746B640E736FCDD4ECD6EAD7D5
:02169000030055
:020000040030CA
:0E00000024CE3E1E008781000FC00FE00F408F
:00000001FF
;PIC18F2455
;CRC=4D7B  CREATED="30-Nov-23 16:41"
